:020000040800F2
:100000000835012011050008EB020008ED02000888
:10001000F1020008F5020008F902000800000000E3
:10002000000000000000000000000000290200089D
:10003000FD0200080000000085020008751300089A
:100040002B0500082B0500082B0500082B050008D0
:100050002B0500082B0500082B0500082B050008C0
:100060002B0500082B0500082B0500082B050008B0
:100070002B0500082B0500082B0500082B050008A0
:100080002B0500082B0500082B0500082B05000890
:100090002B0500082B0500082B0500082B05000880
:1000A0002B0500082B0500082B0500082B05000870
:1000B0002B0500082B0500082B0500082B05000860
:1000C0002B0500082B0500082B0500082B05000850
:1000D0002B050008371500082B0500082B05000824
:1000E0002B0500082B0500082B0500082B05000830
:1000F0002B0500082B0500082B0500082B05000820
:100100002B0500082B0500082B0500082B0500080F
:100110002B0500082B0500082B0500082B050008FF
:100120002B0500082B0500082B0500082B050008EF
:100130002B0500082B0500082B0500082B050008DF
:100140002B0500082B0500082B0500082B050008CF
:100150002B0500082B0500082B0500082B050008BF
:100160002B0500082B0500082B0500082B050008AF
:100170002B0500082B0500082B0500082B0500089F
:100180002B0500082B05000800F002F800F03CF8F1
:100190000AA090E8000C82448344AAF10107DA45E2
:1001A00001D100F031F8AFF2090EBAE80F0013F0F8
:1001B000010F18BFFB1A43F001031847E453000076
:1001C00004540000103A24BF78C878C1FAD8520706
:1001D00024BF30C830C144BF04680C6070470000C1
:1001E0000023002400250026103A28BF78C1FBD840
:1001F000520728BF30C148BF0B6070471FB505F0DC
:10020000C9F91FBD10B510BD05F091F91146FFF7F2
:10021000F5FF00F068F805F0AFF903B4FFF7F2FF5F
:1002200003BC01F029F900002C4B19680868B0E8FC
:10023000F04F80F30988BFF36F8F4FF0000080F319
:10024000118870470000000008480068006880F3CB
:1002500008884FF0000080F3148862B661B6BFF3DF
:100260004F8FBFF36F8F00DF00BF00BF08ED00E0CE
:10027000DFF80C00016841F470010160704700BFB5
:1002800088ED00E0EFF30980BFF36F8F134B1A681E
:100290001EF0100F08BF20ED108A20E9F04F10600B
:1002A00009B44FF0500080F31188BFF34F8FBFF3B4
:1002B0006F8F03F07AFA4FF0000080F3118809BCC9
:1002C00019680868B0E8F04F1EF0100F08BFB0ECD6
:1002D000108A80F30988BFF36F8F70475C0000209D
:1002E000EFF30580704700BFFEE7704700BFFEE7F1
:1002F00000BFFEE700BFFEE700BFFEE7704700005B
:100300000CB50020019000907648006840F48030E1
:100310007449086000BF7348006800F40030009022
:100320000198401C0190009818B90198B0F5A04FB1
:10033000F1D16C48006800F4003010B10120009049
:1003400001E0002000900098012846D16548403027
:10035000006840F08050634940310860624800689E
:1003600040F44040604908605E48083000685D49DC
:10037000083108600846006840F4004008600846FC
:10038000006840F4A05008605848091F0860081F22
:10039000006840F08070091F086000BF5148006885
:1003A00000F000700028F9D040F205705049086054
:1003B0004C480830006820F003004A4908310860C2
:1003C0000846006840F00200086000BF4548083059
:1003D000006800F00C000828F8D10CBD10B54548A5
:1003E000006840F47000434908603E48006840F0EF
:1003F00001003C49086000203A490831086039484A
:1004000000683D490840374908603C48091D0860BC
:10041000081F006820F48020091F0860002031496F
:100420000C310860FFF76CFF4FF0006031498039F4
:10043000086010BD70B500200022022300240221B4
:10044000284D08352D6805F00C0020B1042806D091
:10045000082834D107E02A4D2A4E356033E02A4D72
:10046000284E35602FE01F4D2D1D2D68C5F380549B
:100470001C4D2D1D2D6805F03F0154B1224DB5FBDB
:10048000F1F5184E361D3668C6F3881605FB06F2E0
:1004900009E01B4DB5FBF1F5124E361D3668C6F36B
:1004A000881605FB06F20F4D2D1D2D68C5F301457D
:1004B0006D1C6B00B2FBF3F5124E356003E0104D7E
:1004C000104E356000BF00BF064D08352D68C5F3DE
:1004D00003150E4E705D0B4D2D68C540094E3560FD
:1004E00070BD000000380240007000400854400712
:1004F000003C024088ED00E0FFFFF6FE10300024D3
:100500000024F4000000002000127A000400002003
:100510000948804709480047FEE7FEE7FEE7FEE797
:10052000FEE7FEE7FEE7FEE7FEE7FEE704480549D3
:10053000054A064B70470000DD03000889010008EA
:10054000082F012008350120083101200831012041
:1005500032490143324A1160704770B500210023CF
:100560000F22C4781CB32E4C246804F4E064C4F554
:10057000E064C4F30721C1F10404E3B20A41447802
:100580009C40E1B28478144021430C07210E254C95
:1005900005786155047804F01F050124AC40057806
:1005A0006D11AD0005F1E025C5F8004109E00478C2
:1005B00004F01F050124AC401B4D0678761145F868
:1005C000264070BD194A0A400243154B1B1F1A6092
:1005D000704739B1124A121D12680243104B1B1D9D
:1005E0001A6006E00E4A121D126882430C4B1B1D56
:1005F0001A607047042808D14FF0E021096941F0E2
:1006000004014FF0E022116107E04FF0E021096999
:1006100021F004014FF0E022116170470000FA055B
:100620000CED00E000E400E080E100E080FFFF1F4F
:1006300010B504469848844208D10121084600F0CC
:1006400086FB0021012000F082FB76E09348844283
:1006500008D10121022000F07AFB0021022000F0E5
:1006600076FB6AE08E48844208D10121042000F024
:100670006EFB0021042000F06AFB5EE089488442A2
:1006800008D10121082000F062FB0021082000F0C1
:100690005EFB52E08448844208D10121102000F022
:1006A00056FB0021102000F052FB46E07F488442B8
:1006B00008D10121202000F04AFB0021202000F079
:1006C00046FB3AE07A48844208D10121402000F0FC
:1006D0003EFB0021402000F03AFB2EE075488442AA
:1006E00008D10121802000F032FB0021802000F0A1
:1006F0002EFB22E07048844208D10121801500F0D1
:1007000026FB0021A01500F022FB16E06B48844276
:1007100008D10121401500F01AFB0021601500F0FE
:1007200016FB0AE06648844207D10121001500F05B
:100730000EFB0021201500F00AFB10BDF0B50A46A3
:1007400000210023002400BF3DE0012505FA01F34C
:10075000156805EA03049C4234D105684F0003265E
:10076000BE40B543056015794E00B5400668354377
:1007700005601579012D02D01579022D16D18568F5
:100780004F000326BE40B543856055794E00B54005
:10079000866835438560456801268E40B5434560CF
:1007A000456896798E40B6B235434560C5684F00BE
:1007B0000326BE40B543C560D5794E00B540C66836
:1007C0003543C560491C1029BFD3F0BD4FF6FF71FA
:1007D00001600021017141718171C171704708B5DB
:1007E0004FF480320092009A0A430092009AC2614C
:1007F000C161009AC261C2690092C269009208BDDB
:100800000246002013690B400BB1012000E00020DC
:1008100070470146086980B270470246002053695C
:100820000B400BB1012000E00020704701464869F1
:1008300080B2704701837047418370470AB10183DA
:1008400000E0418370474161704742694A4042611C
:100850007047F0B5002300244D07ED0E02FA05F3B2
:10086000CE1000F1200555F826504E07F70E0F2642
:10087000BE40B543CF1000F1200646F82750CE10F9
:1008800000F1200555F8265045EA0304CE1000F18A
:10089000200545F82640F0BD00000240000402405B
:1008A00000080240000C0240001002400014024008
:1008B00000180240001C02400020024000240240B8
:1008C00000280240F948006840F00100F74908603C
:1008D0000020F64908310860F4480068F4490840EF
:1008E000F2490860F348091D0860F348EF49843174
:1008F0000860F0481038091D0860EC48006820F4D2
:100900008020EA4908600020E8490C310860E74986
:100910008C31086070470021E44A921C1170114626
:100920000870704710B501460022002300204A11CC
:10093000012A02D1DD4C236808E0022A03D1DB4CF6
:100940007034236802E0D94C7434236801F01F022C
:10095000012494401C400CB1012000E0002010BD97
:1009600038B5002000900024002500BF3120FFF79B
:10097000D9FF05460098401C00900098B0F5A04FA4
:1009800001D0002DF2D03120FFF7CCFF08B10124B7
:1009900000E00024204638BD01460020C34A10680C
:1009A00020F0F80040EAC10010607047C3490860B9
:1009B00070470021BD4A703211701170012802D0B9
:1009C00004280AD104E00121B84A7032117005E010
:1009D0000521B64A7032117000E000BF00BF7047B9
:1009E000B7490860704770B5049C41EA821501263A
:1009F000C6EB530645EA0645054345EA0465AB4E9A
:100A0000361D356070BDAD4908667047820142EA07
:100A10000172A64B84331A607047A84988667047F4
:100A200010B5830143EA016343EA02739F4C8834A3
:100A3000236010BDA14908677047A049C86470478A
:100A400002460020994B0833186820F0EC6042EA17
:100A500001031843954B0833186070470246002085
:100A6000924B0833186820F0784042EA010318439B
:100A70008E4B083318607047014600208B4A0832BD
:100A8000106820F003000843106070478748083062
:100A9000006800F00C00704701460020834A0832CD
:100AA000106820F0F00008431060704701460020F5
:100AB0007E4A0832106820F4E05008431060704706
:100AC00001460020794A0832106820F4604040EA6C
:100AD000C10010607047F0B50021002200240225FB
:100AE00000260223714F08373F6807F00C0121B13F
:100AF000042905D0082937D105E0724F076036E098
:100B0000714F076033E0694F3F1D3F68C7F3805660
:100B1000664F3F1D3F6807F03F036EB16A4FB7FB5A
:100B2000F3F7DFF888C10CF1040CDCF800C0CCF35B
:100B3000881C07FB0CF40CE0624FB7FBF3F7DFF8FF
:100B40006CC10CF1040CDCF800C0CCF3881C07FB72
:100B50000CF4564F3F1D3F68C7F301477F1C7D00D3
:100B6000B4FBF5F7076002E0564F076000BF00BF17
:100B70004E4F08373F6807F0F0010909534F7A5C80
:100B80000768D7404760494F08373F6807F4E0518E
:100B9000890A4E4F7A5C4768D7408760434F0837D1
:100BA0003F6807F46041490B484F7A5C4768D7407B
:100BB000C760F0BD002100F44072B2F5407F0AD159
:100BC0003A4A0832116821F4F811414A02401143AF
:100BD000364A08321160354A70321268C0F30B038E
:100BE0001A43324B70331A607047354944390860F4
:100BF000704733494039086070473649086070478C
:100C000001460020294A8C32106820F01F004A1E3D
:100C10001043264A8C321060704701460020234A58
:100C20008C32106820F4F8504A1E40EA02201F4A15
:100C30008C3210607047014600201C4A8C321068CC
:100C400020F4401008431060704701460020174A06
:100C50008C32106820F44000084310607047014651
:100C60000020124A8C32106820F440300843106093
:100C7000704719490860704739B10C4A3032126820
:100C800002430A4B30331A6006E0084A30321268D9
:100C90008243064B30331A607047F9B1034A34324D
:100CA00012680243014B34331A601CE000380240E2
:100CB000FFFFF6EA10300024003000200000474219
:100CC000800E47420024F40000127A001400002035
:100CD000FFFCFF0F5C014742E01147428F4A126858
:100CE00082438E4B1A60704739B18C4A121D1268CC
:100CF00002438A4B1B1D1A6006E0884A121D1268C7
:100D00008243864B1B1D1A60704739B1834A0C32EF
:100D100012680243814B0C331A6006E07F4A0C32A2
:100D2000126882437D4B0C331A60704739B17B4A9D
:100D3000103212680243794B10331A6006E0774A8A
:100D4000103212688243754B10331A60704739B104
:100D5000724A243A12680243704B243B1A6006E040
:100D60006E4A243A126882436C4B243B1A607047E7
:100D700039B16A4A203A12680243684B203B1A6034
:100D800006E0664A203A12688243644B203B1A60B0
:100D9000704739B1614A1C3A126802435F4B1C3BF1
:100DA0001A6006E05D4A1C3A126882435B4B1C3BAA
:100DB0001A60704739B1594A143A12680243574BC6
:100DC000143B1A6006E0554A143A12688243534BAA
:100DD000143B1A60704739B1504A103A1268024306
:100DE0004E4B103B1A6006E04C4A103A12688243A0
:100DF0004A4B103B1A60704739B1484A1C3212689E
:100E00000243464B1C331A6006E0444A1C32126807
:100E10008243424B1C331A60704739B13F4A20323B
:100E2000126802433D4B20331A6006E03B4A2032F1
:100E300012688243394B20331A60704739B1374A00
:100E4000243212680243354B24331A6006E0334AD9
:100E5000243212688243314B24331A60704739B10F
:100E60002E4A2C32126802432C4B2C331A6006E0B7
:100E70002A4A2C3212688243284B2C331A6070475E
:100E800039B1264A303212680243244B30331A609B
:100E900006E0224A303212688243204B30331A6017
:100EA0007047012808D11D493C31096841F008010B
:100EB0001A4A3C32116007E018493C31096821F0B8
:100EC0000801164A3C321160704739B1134A273A7B
:100ED00012780243114B273B1A7006E00F4A273A5B
:100EE000127882430D4B273B1A7070470B484030F5
:100EF000006840F080700949403108607047014641
:100F00000020064A283A12680A400AB1012000E08F
:100F10000020704701492639087070473438024074
:100F200010B50446FA48844208D101211020FFF789
:100F300052FF00211020FFF74EFF57E0F548844292
:100F400009D101214804FFF735FF00214FF400309B
:100F5000FFF730FF4AE0F048844209D101218804BC
:100F6000FFF728FF00214FF48020FFF723FF3DE02B
:100F7000EA48844209D10121C804FFF71BFF002180
:100F80004FF40020FFF716FF30E0E548844209D116
:100F900001210805FFF70EFF00214FF48010FFF735
:100FA00009FF23E0DF48844208D101212020FFF718
:100FB00012FF00212020FFF70EFF17E0DA488442DD
:100FC00009D101218807FFF7F5FE00214FF080408D
:100FD000FFF7F0FE0AE0D548844207D10121400521
:100FE000FFF7E8FE00216005FFF7E4FE10BD2DE9E4
:100FF000FF4705460E460024A14600BFA046B08923
:1010000000B100BF2C8A24F44054F08804432C82A1
:10101000AC8941F20C608443B088318908437189FE
:1010200008430443AC81AC8A24F44074B08904437F
:10103000AC826846FFF74FFDB548854202D0B948FB
:10104000854202D1DDF80C9001E0DDF80890A88916
:1010500000F4004040B109EBC90000EB0910316811
:101060004900B0FBF1F707E009EBC90000EB0910FC
:1010700031688900B0FBF1F76420B7FBF0F00401A0
:101080002009642101FB1078A88900F4004040B1D8
:10109000322000EBC800B0FBF1F000F00700044381
:1010A00008E0322000EB08106421B0FBF1F000F002
:1010B0000F0004432C81BDE8FF874FF416510160F7
:1010C00000218180C18001810C2141810021818129
:1010D000704710B502460020108A20F470600B881B
:1010E0004C8823438C882343CC88234318431082A5
:1010F00010BD0021018041808180C180704721B1F5
:10110000828942F40052828104E082894DF6FF73A5
:101110001A4082817047028B02F47F420283028B65
:101120000A430283704721B1828942F400428281DE
:1011300003E08289C2F30E028281704721B1828A64
:1011400042F40062828204E0828A4FF2FF731A4006
:1011500082827047C1F30802828070470146888806
:10116000C0F308007047028A4FF6F0731A400282FB
:10117000028A0A430282704721B1828942F0020248
:10118000828104E082894FF6FD731A4082817047A4
:1011900082894FF2FF731A40828182890A438281D9
:1011A0007047028A4FF6DF731A400282028A0A43AE
:1011B0000282704721B1028A42F48042028204E036
:1011C000028A4BF6FF731A4002827047818941F010
:1011D00001018181704721B1828A42F00802828236
:1011E00004E0828A4FF6F7731A4082827047028BBE
:1011F000D2B20283028B42EA01220283704721B1FC
:10120000828A42F02002828204E0828A4FF6DF73F3
:101210001A408282704721B1828A42F01002828293
:1012200004E0828A4FF6EF731A4082827047828A06
:101230004FF6FB731A408282828A0A438282704789
:1012400021B1828A42F00202828204E0828A4FF651
:10125000FD731A40828270471AB1838A0B438382DE
:1012600002E0838A8B4383827047F0B503460024F3
:1012700000260025002040F66A17B94200D100BFC1
:101280001846C1F3421401F01F06012707FA06F5BC
:10129000012C01D10C3004E0022C01D1103000E00F
:1012A00014301AB107682F43076002E00768AF43A4
:1012B0000760F0BD02460020B1F5007F00D100BFFD
:1012C00013880B400BB1012000E00020704701F4AF
:1012D0000072B2F5007F00D100BFCA4302807047A0
:1012E00070B50246002400230025002040F66A164F
:1012F000B14200D100BFC1F3421501F01F03012626
:1013000006FA03F3012D13D19689334017E000004C
:10131000001001400044004000480040004C0040E4
:10132000005000400014014000780040007C004064
:10133000022D02D1168A334001E0968A33400C1206
:10134000012606FA04F41688344013B10CB10120CA
:1013500000E0002070BD10B50022002340F66A14A2
:10136000A14200D100BF0A1201249440A3B2DC4381
:10137000048010BD10B502F09AFF012801D000F0E2
:101380005FFA10BD10B50420FFF734F93648006845
:101390003649B0FBF1F036490870334800683349EC
:1013A000B0FBF1F44FF47A704443012031490880D6
:1013B0004FF0E020006940F002004FF0E0210861AA
:1013C00008464461006940F00100086110BD70B535
:1013D000034600224FF0E0267569254E367803FB60
:1013E00006F44FF0E026B16910E04FF0E026B06956
:1013F00088420BD0884202D20E1A324402E02E1AE2
:101400000E4432440146A24200D300E0EDE700BFA3
:1014100070BD70B5044602F04AFF012810D015488F
:101420000088844206D313480088B4FBF0F52846B0
:1014300002F064F80F480088B4FBF0F100FB11449F
:101440004FF47A7104FB01F0FFF7C1FF70BD30B5B6
:101450000446002504E04FF47A70FFF7B8FF6D1CD6
:10146000A542F8D330BD00000000002040420F002C
:10147000240000202600002000BF704700BF4C4A17
:10148000128802F04002002AF9D0C2B2484B9A807A
:10149000704710B588B0044601210846FFF7ECFB01
:1014A00001211020FFF742FC072209214148FFF7E4
:1014B000D0F907220A213F48FFF7CBF94FF4C0606B
:1014C000069002208DF81C008DF81D0000208DF87C
:1014D0001E0001208DF81F0006A93648FFF72EF9DF
:1014E00002940020ADF80C00ADF80E00ADF810002D
:1014F000ADF814000C20ADF8120002A92C48FFF73B
:1015000076FD01212A48FFF7FAFD012240F225511C
:101510002748FFF7AAFE25208DF8040003208DF848
:1015200005008DF8060001208DF8070001A8FFF7DF
:1015300014F808B010BD10B540F225511C48FFF753
:10154000CFFE10B31A48FFF709FEC4B21A4800884C
:1015500000F40040C8B91848008800F4804060B129
:101560000A2C03D000201449088020E0124800888B
:1015700040F400401049088019E00D2C06D10E48B7
:10158000008840F480400C49088010E00A48008838
:10159000C0F30D0009490C5407480088401C064957
:1015A000088008460088C72801DD0020088010BD9B
:1015B00000100140000002402C000020B00000207C
:1015C000C6480068401C08B9012000E0002050B95E
:1015D00000BF502080F31188BFF34F8FBFF36F8F90
:1015E00000BF00BFFEE700BF502080F31188BFF3AB
:1015F0004F8FBFF36F8F00BF00BFFEE7001F4FF09C
:1016000080730360001F21F001030360001FB44BCF
:10161000036014380260001F6FF00203036020387B
:10162000704700204FF0E02108618861AD480068F4
:101630004FF47A71B0FBF1F0401E4FF0E0214861A9
:101640000720086170471CB5A7480068A749884271
:1016500001D0012000E0002050B900BF502080F3ED
:101660001188BFF34F8FBFF36F8F00BF00BFFEE73E
:101670009D4800689D49491E884201D0012000E034
:10168000002050B900BF502080F31188BFF34F8F66
:10169000BFF36F8F00BF00BFFEE795490846007893
:1016A0000190FF200A4610700846007800909DF8CF
:1016B000000000F0F0009DF80020904201D10120D0
:1016C00000E0002050B900BF502080F31188BFF324
:1016D0004F8FBFF36F8F00BF00BFFEE79DF8000084
:1016E00000F05000834A10700720834A106009E020
:1016F00081480068401E804A10609DF80000400646
:10170000000E00909DF8000000F080008028EFD0CF
:1017100079480068C0F10700042801D1012000E0E9
:10172000002050B900BF502080F31188BFF34F8FC5
:10173000BFF36F8F00BF00BFFEE76F480068000275
:101740006D4A10601046008800F4E0601060684A3E
:101750000198107064482030006840F470006249BD
:10176000203108600846006840F070400860FFF7CC
:1017700058FF002059490860FEF77AFD5F4800686D
:1017800040F040405D490860FEF75EFD00201CBD52
:1017900052480068B0F57A7F01D1012000E00020B6
:1017A00050B900BF502080F31188BFF34F8FBFF3B3
:1017B0006F8F00BF00BFFEE7704700BF502080F36F
:1017C0001188BFF34F8FBFF36F8F00BF434800688E
:1017D000401C4249086008460068012813D142486D
:1017E000001D0068C0B208B9012000E0002050B917
:1017F00000BF502080F31188BFF34F8FBFF36F8F6E
:1018000000BF00BFFEE770473448006850B900BF12
:10181000502080F31188BFF34F8FBFF36F8F00BF4D
:1018200000BFFEE72D480068401E2C4908600846AE
:10183000006820B9002080F3118800BF00BF704706
:1018400010B500BF502080F31188BFF34F8FBFF356
:101850006F8F00BF01F0FCFB20B14FF08050224998
:10186000091D086000BF002080F3118800BF10BD73
:1018700070B5FEF735FD0446102C16D304F1E020B8
:1018800090F8F0531B480078854201DB012000E00E
:10189000002050B900BF502080F31188BFF34F8F54
:1018A000BFF36F8F00BF00BFFEE70F480C3000682A
:1018B00000F4E06010490968884201D8012000E086
:1018C000002050B900BF502080F31188BFF34F8F24
:1018D000BFF36F8F00BF00BFFEE770BD3000002078
:1018E000C11500080000002000ED00E071C20F41AA
:1018F00000E400E0340000203800002034EF00E075
:1019000010B50146C64800E0006803688B42FBD36F
:101910000246436813448B4204D143684C68234415
:10192000436001460A464B6813440468A34211D140
:10193000BC4C03682468A34208D04B680468646800
:1019400023444B6003681B680B6005E0B54B1B68C4
:101950000B6001E003680B60884200D0016010BD9D
:1019600030B54FF49633B04800F007042CB1C01DD9
:1019700020F00700AC4C041B1B1B0246A84C226045
:101980000024A74D6C60D018083820F00700A54C43
:1019900020600024A34D2D686C60A24D2D682C6042
:1019A0001146441A4C609F4C24680C609F4D4C6853
:1019B0002C609F4D4C682C604FF000449D4D2C6076
:1019C00030BD2DE9F04104464FF0000801F02BFD39
:1019D0009448006808B9FFF7C3FF964800682040A4
:1019E00000287DD13CB304F10800A04223D908347B
:1019F00004F0070000B304F00700C0F10800204421
:101A0000A04216D904F00700C0F10800044404F015
:101A1000070008B9012000E0002068B900BF50208D
:101A200080F31188BFF34F8FBFF36F8F00BF00BFEC
:101A3000FEE7002400E00024002C54D07C4800681D
:101A4000844250D8764E3046056801E02E462D6817
:101A50006868A04202D228680028F7D1714800685F
:101A6000854240D0306800F1080828683060686816
:101A7000001B102819D92F1907F0070008B90120F9
:101A800000E0002050B900BF502080F31188BFF360
:101A90004F8FBFF36F8F00BF00BFFEE76868001B6A
:101AA00078606C603846FFF72BFF61496868096809
:101AB000081A5F490860084600685C49096888425E
:101AC00003D25B480068594908605A496868096848
:101AD000084368600020286057480068401C00E008
:101AE00001E05549086001F0A3FB08F0070008B9C0
:101AF000012000E0002050B900BF502080F3118881
:101B0000BFF34F8FBFF36F8F00BF00BFFEE74046AC
:101B1000BDE8F08170B506463546002E44D0083D3C
:101B20002C46444960680968084008B1012000E07B
:101B3000002050B900BF502080F31188BFF34F8FB1
:101B4000BFF36F8F00BF00BFFEE7206808B9012018
:101B500000E0002050B900BF502080F31188BFF38F
:101B60004F8FBFF36F8F00BF00BFFEE73149606842
:101B700009680840C0B12068B0B92E49606809689A
:101B80008843606001F04FFC294960680968084497
:101B9000274908602046FFF7B3FE28480068401C2C
:101BA0002649086001F044FB70BD21480068704779
:101BB0001E480068704770472DE9F04104464FF019
:101BC00000080026771E01F02EFC154805687DB13F
:101BD00000BF08F101086868B04200D96E68686803
:101BE000B84200D26F682D680E4800688542F0D177
:101BF00001F01EFB6660A760C4F80C80FFF7DDFDF6
:101C00000B48006820600C48006860610B48006861
:101C1000A061064800682061FFF7F6FDBDE8F0818D
:101C20003C00002044000020780100204C000020EF
:101C300048000020580000205000002054000020E0
:101C400000F1080141604FF0FF31816000F10801AF
:101C5000C16001610021016070470021016170478E
:101C600042684A6093688B6093685960916008612C
:101C700003685B1C0360704710B502460B685C1C70
:101C80000CB9106907E002F1080000E04068446800
:101C900024689C42FAD944684C604C68A160886012
:101CA00041600A611468641C146010BD01460A6931
:101CB000D1E901309860D1E9010358605068884249
:101CC00001D188685060002008611068401E1060D3
:101CD000106870472DE9F04105460E4601272C4655
:101CE00054B900BF502080F31188BFF34F8FBFF36A
:101CF0006F8F00BF00BFFEE7002C42D0E06B0028D2
:101D00003FD04FF0FF31E06BB1FBF0F0216C884227
:101D100037D3FFF752FDD4E90F12206801FB020010
:101D2000A0600020A06320686060E06B401E226C11
:101D3000216800FB0211E160FF2084F8440084F870
:101D400045009EB9206908B9012000E00020A8B92B
:101D500004F1100002F01BF980B14FF08050F649F9
:101D60000860BFF34F8FBFF36F8F07E004F11000DF
:101D7000FFF766FF04F12400FFF762FFFFF744FD61
:101D800000E000270FB1012000E0002050B900BFA3
:101D9000502080F31188BFF34F8FBFF36F8F00BFC8
:101DA00000BFFEE73846BDE8F0812DE9F041064668
:101DB0000D4617469846069C0DB9246000E0276042
:101DC000E663256401212046FFF784FF84F84C80F8
:101DD000BDE8F0812DE9F84305460E46174600247C
:101DE000E5B1601EB0FBF5F0B04217D305FB06F07D
:101DF00010F1510F12D805FB06F808F15000FFF75B
:101E0000E0FD0446B4B1A14609F150093B464A46FB
:101E1000314628460094FFF7C8FF0BE054B900BFD5
:101E2000502080F31188BFF34F8FBFF36F8F00BF37
:101E300000BFFEE72046BDE8F88370B50446FFF713
:101E4000BCFC94F9455010E0606A08B9012000E03C
:101E5000002038B904F1240002F099F818B102F01A
:101E600014FA00E003E0681E45B2002DECDC00BF70
:101E7000FF2084F84500FFF7C7FCFFF79EFC94F9AC
:101E8000445010E0206908B9012000E0002048B962
:101E900004F1100002F07BF808B102F0F6F9681EB8
:101EA00045B200E001E0002DECDC00BFFF2084F82B
:101EB0004400FFF7A9FC70BD70B50546FFF77DFC37
:101EC000A86BE96B884201D1012400E00024FFF7F0
:101ED0009BFC204670BD2DE9F04104460F46154697
:101EE0004FF00008A66B206C48B9206800282CD160
:101EF000A06802F058FA80460020A06025E07DB975
:101F00003946226C606803F046FA216C6068084428
:101F10006060D4E90101884217D32068606014E052
:101F20003946226CE06803F036FA216CE068411A09
:101F3000E1602168E068884203D2216CA068411A00
:101F4000E160022D01D106B1761E701CA0634046EF
:101F5000BDE8F0812DE9FF4383B0064688461D4663
:101F60004FF00009344654B900BF502080F3118867
:101F7000BFF34F8FBFF36F8F00BF00BFFEE7B8F115
:101F8000000F01D1206C08B9012000E0002050B9F9
:101F900000BF502080F31188BFF34F8FBFF36F8FC6
:101FA00000BF00BFFEE7022D02D1E06B012801D186
:101FB000012000E0002050B900BF502080F31188BC
:101FC000BFF34F8FBFF36F8F00BF00BFFEE702F07C
:101FD0006EF908B9059808B9012000E0002050B951
:101FE00000BF502080F31188BFF34F8FBFF36F8F76
:101FF00000BF00BFFEE700BFFFF7DFFBA06BE16B98
:10200000884201D3022D28D12A4641462046FFF7B7
:1020100062FF0746606A08B9012000E0002068B945
:1020200004F1240001F0B3FF88B14FF08050424921
:102030000860BFF34F8FBFF36F8F08E03FB14FF0E1
:1020400080503D490860BFF34F8FBFF36F8FFFF79C
:10205000DBFB012007B0BDE8F083059818B9FFF756
:10206000D3FB0020F6E7B9F1000F04D101A802F07C
:10207000A8F84FF00109FFF7C7FB01F0D4F9FFF70B
:102080009CFB94F94400401C10B9002084F84400E3
:1020900094F94500401C10B9002084F84500FFF772
:1020A000B3FB05A901A802F093F8F0B92046FFF7A9
:1020B00003FFA0B104F11000059901F0DCFE2046F9
:1020C000FFF7BBFE01F0B4F8002895D14FF0805027
:1020D00019490860BFF34F8FBFF36F8F8CE720461D
:1020E000FFF7ABFE01F0A4F886E72046FFF7A5FE58
:1020F00001F09EF80020ADE710B5044654B1002071
:10210000A06020600021E16000231A4619462046A5
:10211000FFF720FF10BD2DE9F041044601260027FE
:10212000224600210120FFF755FE05462846FFF70D
:10213000E3FF2846BDE8F08104ED00E070B50546F8
:102140002C4654B900BF502080F31188BFF34F8F45
:10215000BFF36F8F00BF00BFFEE702F0A5F8A168D4
:1021600088420CD1E068401EE060E06828B9002396
:102170001A4619462046FFF7EDFE012600E000262C
:10218000304670BD01464A6A22B10A6B1268C2F13C
:10219000050000E00020704770B50546FFF70DFB15
:1021A000A86B08B9012400E00024FFF72DFB2046AE
:1021B00070BD2DE9F34182B005464FF000082C4672
:1021C000002654B900BF502080F31188BFF34F8F11
:1021D000BFF36F8F00BF00BFFEE7206C08B901207E
:1021E00000E0002050B900BF502080F31188BFF3F9
:1021F0004F8FBFF36F8F00BF00BFFEE702F057F8AD
:1022000008B9039808B9012000E0002050B900BFC8
:10221000502080F31188BFF34F8FBFF36F8F00BF43
:1022200000BFFEE700BFFFF7C8FAA76BFFB1781E3B
:10223000A063206810B902F0B9F9A060206908B95C
:10224000012000E0002060B904F1100001F09FFEC1
:1022500038B14FF08050F9490860BFF34F8FBFF39A
:102260006F8FFFF7D1FA012004B0BDE8F081039829
:1022700098B90EB9012000E0002050B900BF5020ED
:1022800080F31188BFF34F8FBFF36F8F00BF00BF84
:10229000FEE7FFF7B9FA0020E6E7B8F1000F04D136
:1022A000684601F08EFF4FF00108FFF7ADFA01F02C
:1022B000BAF8FFF782FA94F94400401C10B90020E4
:1022C00084F8440094F94500401C10B9002084F8BB
:1022D0004500FFF799FA03A9684601F079FF40BB72
:1022E0002046FFF759FFF0B1206838B9FFF765FACB
:1022F000A06801F0E8FF0646FFF786FA04F1240023
:10230000039901F0B8FD2046FFF797FD00F090FF1C
:10231000002888D14FF08050C8490860BFF34F8F24
:10232000BFF36F8F7FE72046FFF787FD00F080FF48
:1023300079E72046FFF781FD00F07AFF2046FFF79E
:102340002BFF0028EED05EB1FFF737FA2046FFF7EB
:1023500019FF07463946A06802F096F8FFF754FACD
:10236000002081E72DE9F04106460F46344654B976
:1023700000BF502080F31188BFF34F8FBFF36F8FE2
:1023800000BF00BFFEE701F08FFFA168884204D1C3
:10239000E068401CE060012508E039462046FFF770
:1023A00008FF054615B1E068401CE0602846BDE81E
:1023B000F08170B505460E46002455B1AE4208D8EE
:1023C000022200212846FFF705FD04466CB1A663F2
:1023D0000BE054B900BF502080F31188BFF34F8F3A
:1023E000BFF36F8F00BF00BFFEE7204670BD2DE931
:1023F000F84F07468B4690461E463C4654B900BFF0
:10240000502080F31188BFF34F8FBFF36F8F00BF51
:1024100000BFFEE7BBF1000F01D1206C08B901201D
:1024200000E0002050B900BF502080F31188BFF3B6
:102430004F8FBFF36F8F00BF00BFFEE7022E02D1A8
:10244000E06B012801D1012000E0002050B900BF5D
:10245000502080F31188BFF34F8FBFF36F8F00BF01
:1024600000BFFEE7FFF704FA00BF5021EFF3118031
:1024700081F31188BFF34F8FBFF36F8F00BF054605
:10248000A06BE16B884201D3022E37D194F945A0AD
:10249000A06B0090324659462046FFF71CFD0AF11A
:1024A000010088B9606A08B9012000E0002050B935
:1024B00004F1240001F06BFD28B1B8F1000F02D047
:1024C0000120C8F8000016E0BAF17F0F01D001200A
:1024D00000E0002050B900BF502080F31188BFF306
:1024E0004F8FBFF36F8F00BF00BFFEE70AF10100FF
:1024F00040B284F845004FF0010901E04FF00009B7
:1025000000BF85F3118800BF4846BDE8F88F2DE96C
:10251000F04706460F46344654B900BF502080F3BA
:102520001188BFF34F8FBFF36F8F00BF00BFFEE76F
:10253000206C08B9012000E0002050B900BF5020F5
:1025400080F31188BFF34F8FBFF36F8F00BF00BFC1
:10255000FEE7206808B9A06808B9012000E0002063
:1025600050B900BF502080F31188BFF34F8FBFF3E5
:102570006F8F00BF00BFFEE7FFF77AF900BF502161
:10258000EFF3118081F31188BFF34F8FBFF36F8F8B
:1025900000BF0546D4F838A0E06B504530D994F917
:1025A00045900AF10100A06309F1010070B9606A69
:1025B00008B9012000E00020F8B904F1240001F07E
:1025C000E6FCD0B1CFB10120386016E0B9F17F0F41
:1025D00001D0012000E0002050B900BF502080F35E
:1025E0001188BFF34F8FBFF36F8F00BF00BFFEE7AF
:1025F00009F1010040B284F845004FF0010801E004
:102600004FF0000800BF85F3118800BF4046BDE8C9
:10261000F08770B504460D46206C70B1216CE068FF
:102620000144E160D4E90210884201D32168E160ED
:102630002846226CE16802F0AEFE70BD04ED00E0B9
:102640002DE9F74183B005460E464FF000082C46B1
:1026500054B900BF502080F31188BFF34F8FBFF3F0
:102660006F8F00BF00BFFEE70EB9206C08B90120D4
:1026700000E0002050B900BF502080F31188BFF364
:102680004F8FBFF36F8F00BF00BFFEE701F00FFE5B
:1026900008B9059808B9012000E0002050B900BF32
:1026A000502080F31188BFF34F8FBFF36F8F00BFAF
:1026B00000BFFEE700BFFFF780F8A76BF7B1314618
:1026C0002046FFF7A6FF781EA063206908B9012005
:1026D00000E0002060B904F1100001F058FC38B1AE
:1026E0004FF08050F8490860BFF34F8FBFF36F8FF2
:1026F000FFF78AF8012006B0BDE8F081059818B907
:10270000FFF782F80020F6E7B8F1000F04D101A826
:1027100001F057FD4FF00108FFF776F800F083FE57
:10272000FFF74BF894F94400401C10B9002084F8DE
:10273000440094F94500401C10B9002084F845007D
:10274000FFF762F805A901A801F042FDF0B92046A3
:10275000FFF722FDA0B104F12400059901F08BFBE5
:102760002046FFF76AFB00F063FD0028A3D14FF07D
:102770008050D5490860BFF34F8FBFF36F8F9AE742
:102780002046FFF75AFB00F053FD94E72046FFF781
:1027900054FB00F04DFD2046FFF7FEFC00288AD0D8
:1027A0000020A8E72DE9F74382B005460E464FF01A
:1027B00000082C4654B900BF502080F31188BFF3A5
:1027C0004F8FBFF36F8F00BF00BFFEE70EB9206CC5
:1027D00008B9012000E0002050B900BF502080F36C
:1027E0001188BFF34F8FBFF36F8F00BF00BFFEE7AD
:1027F00001F05DFD08B9049808B9012000E000204F
:1028000050B900BF502080F31188BFF34F8FBFF342
:102810006F8F00BF00BFFEE700BFFEF7CEFFD4F80A
:102820003890B9F1000F1ED0E76831462046FFF717
:10283000F0FEE760606A08B9012000E0002060B99E
:1028400004F1240001F0A3FB38B14FF080509E4901
:102850000860BFF34F8FBFF36F8FFEF7D5FF0120E6
:1028600005B0BDE8F083049818B9FEF7CDFF00204D
:10287000F6E7B8F1000F04D1684601F0A2FC4FF072
:102880000108FEF7C1FF00F0CEFDFEF796FF94F9B8
:102890004400401C10B9002084F8440094F945001D
:1028A000401C10B9002084F84500FEF7ADFF04A9D4
:1028B000684601F08DFCF0B92046FFF76DFCA0B131
:1028C00004F12400049901F0D6FA2046FFF7B5FA86
:1028D00000F0AEFC0028A0D14FF080507A4908608B
:1028E000BFF34F8FBFF36F8F97E72046FFF7A5FA2F
:1028F00000F09EFC91E72046FFF79FFA00F098FC5D
:102900002046FFF749FC002887D00020A8E72DE9E2
:10291000F05F06468A461746344654B900BF502039
:1029200080F31188BFF34F8FBFF36F8F00BF00BFDD
:10293000FEE7BAF1000F01D1206C08B9012000E0D8
:10294000002050B900BF502080F31188BFF34F8F93
:10295000BFF36F8F00BF00BFFEE7FEF789FF00BF28
:102960005021EFF3118081F31188BFF34F8FBFF334
:102970006F8F00BF0546D4F838B0BBF1000F34D0DC
:1029800094F9449051462046FFF743FEABF1010015
:10299000A06309F1010070B9206908B9012000E0C5
:1029A0000020F8B904F1100001F0F1FAD0B1CFB174
:1029B0000120386016E0B9F17F0F01D0012000E05E
:1029C000002050B900BF502080F31188BFF34F8F13
:1029D000BFF36F8F00BF00BFFEE709F1010040B2F7
:1029E00084F844004FF0010801E04FF0000800BFF8
:1029F00085F3118800BF4046BDE8F09F2DE9F04700
:102A000006468846344654B900BF502080F31188EA
:102A1000BFF34F8FBFF36F8F00BF00BFFEE7B8F16A
:102A2000000F01D1206C08B9012000E0002050B94E
:102A300000BF502080F31188BFF34F8FBFF36F8F1B
:102A400000BF00BFFEE7206C08B1012000E00020BD
:102A500050B900BF502080F31188BFF34F8FBFF3F0
:102A60006F8F00BF00BFFEE7FEF702FF00BF5021DF
:102A7000EFF3118081F31188BFF34F8FBFF36F8F96
:102A800000BF0546A06B48B1D4F80C9041462046E3
:102A9000FFF7BFFDC4F80C90012700E0002700BF3E
:102AA00085F3118800BF3846BDE8F08770B504464D
:102AB00064B900BF502080F31188BFF34F8FBFF37C
:102AC0006F8F00BF00BFFEE704ED00E0FEF775FE6C
:102AD000A56BFEF799FE284670BD70B504462546E5
:102AE00055B900BF502080F31188BFF34F8FBFF35B
:102AF0006F8F00BF00BFFEE7FEF75FFED5E90E1047
:102B0000461AFEF781FE304670BD10B501460A46F2
:102B100052B900BF502383F31188BFF34F8FBFF327
:102B20006F8F00BF00BFFEE7906B10BD014651B92B
:102B300000BF502282F31188BFF34F8FBFF36F8F16
:102B400000BF00BFFEE700200EE0684A02EBC002B3
:102B500052688A4207D10022644B43F8302003EBCD
:102B6000C0035A6002E0401C0828EED300BF704743
:102B700070B50446254655B900BF502080F3118832
:102B8000BFF34F8FBFF36F8F00BF00BFFEE7284634
:102B9000FFF7CCFF2846FEF7BDFF70BD0146886CED
:102BA000704781647047014691F84C00704710B53A
:102BB00001460A4652B900BF502383F31188BFF380
:102BC0004F8FBFF36F8F00BF00BFFEE7936B0BB952
:102BD000012000E0002010BD10B501460A4652B9A0
:102BE00000BF502383F31188BFF34F8FBFF36F8F64
:102BF00000BF00BFFEE7936BD46BA34201D101205D
:102C000000E0002010BD30B502460B4652B900BFAF
:102C1000502484F31188BFF34F8FBFF36F8F00BF31
:102C200000BFFEE70021BBB1002012E02F4C04EBF7
:102C3000C0046468944203D12C4C04EBC0010AE048
:102C400031B92A4C54F8304014B9284C04EBC00177
:102C5000401C0828EAD300BF09B10B604A6030BDB0
:102C600010B50246002052B900BF502383F31188EB
:102C7000BFF34F8FBFF36F8F00BF00BFFEE7002190
:102C80000AE01A4B03EBC1035B68934203D1174B75
:102C900053F8310002E0491C0829F2D300BF10BDEF
:102CA0002DE9F04105460E4617462C46FEF785FDF8
:102CB00094F94400401C10B9002084F8440094F9B1
:102CC0004500401C10B9002084F84500FEF79CFD2B
:102CD000A06B28B93A46314604F1240001F028F9E6
:102CE0002046FFF7AAF8BDE8F0810000782D01200A
:102CF00010B5002407E004EB8401F74A02EB8100E1
:102D0000FEF79EFF641C052CF5D3F448FEF798FFF0
:102D1000F348FEF795FFF348FEF792FFF248FEF7FF
:102D20008FFFF248FEF78CFFEC48F1490860EC4851
:102D3000F049086010BD10B50446FEF73EFDEE48B0
:102D40000068401CEC490860EC48006840B9EB485A
:102D500004600846006801280DD1FFF7C9FF0AE0AA
:102D6000E748006838B9E5480068C06AE16A884207
:102D700001D8E2480460E3480068401CE14908606B
:102D800008460068206494F82C1001208840DE4931
:102D900009680843DC490860E16A01EB8101CE4A19
:102DA00002EB81014868A0608268E260211D8268B0
:102DB00051608160E16A01EB8101C74A02EB810247
:102DC0006261E16A01EB8101C34A52F82110491C9A
:102DD000E26A02EB8202C04B43F82210FEF714FDB8
:102DE000C748006868B1C5480068C06AE16A88429F
:102DF00007D24FF08050C5490860BFF34F8FBFF333
:102E00006F8F10BD2DE9F05F82460F4690469B46BE
:102E10000A9E0C9C4FEA8801A522206B02F000FB61
:102E2000A8F10100216B01EB800929F0070909F0E5
:102E3000070008B9012000E0002050B900BF502071
:102E400080F31188BFF34F8FBFF36F8F00BF00BFB8
:102E5000FEE787B1002507E0795D04F134004155B4
:102E6000785D00B902E06D1C0A2DF5D300BF00218A
:102E70003D20015502E0002084F83400052E01D2E7
:102E8000012000E0002050B900BF502080F31188DD
:102E9000BFF34F8FBFF36F8F00BF00BFFEE7052E5C
:102EA00000D30426E662A6640020E064201DFEF73D
:102EB000D4FE04F11800FEF7D0FE2461C6F105002F
:102EC000A06164620020206584F854005A4651468F
:102ED0004846FEF793FB20600B9808B10B980460FE
:102EE000BDE8F09F2DE9FF4F85B080468946174623
:102EF000DDE912ABB800FEF764FD064656B1582076
:102F0000FEF75FFD04460CB1266304E03046FEF791
:102F100001FE00E000247CB10020CDE900ABCDE94A
:102F200002403A4649464046089BFFF76BFF204661
:102F3000FFF701FF012501E04FF0FF35284609B0FA
:102F4000BDE8F08F10B50446206BFEF7E3FD204688
:102F5000FEF7E0FD10BD66480068006808B9012072
:102F600000E0002020B14FF0FF306949086005E023
:102F70005F480068C068006865490860704770B5C0
:102F80000546FEF71AFC15B95C48006800E02846C3
:102F90000446201DFEF78AFE78B9E06A00EB800047
:102FA0004D4951F8200040B994F82C100120884078
:102FB00055490968814354480160A06A18B104F179
:102FC0001800FEF773FE4F480068401C4D4908602A
:102FD0004A480068844209D1211D4348FEF740FE5B
:102FE0004C480068401C4B49086006E042480068B5
:102FF000401E41490860FFF7AEFFFEF705FC3F4861
:103000000068844202D02046FFF79CFF3C480068DD
:10301000E8B13A480068844219D13F48006808B9CD
:10302000012000E0002050B900BF502080F311883B
:10303000BFF34F8FBFF36F8F00BF00BFFEE74FF0AE
:10304000805032490860BFF34F8FBFF36F8F70BD60
:103050002DE9F0414FF000082F48006800287DD18D
:103060002E480068451C2D48056015BB20480068A7
:10307000006808B9012000E0002050B900BF5020CE
:1030800080F31188BFF34F8FBFF36F8F00BF00BF76
:10309000FEE7174807681748006815490860154893
:1030A00007601F480068401C1D490860FFF753FF78
:1030B00000BF1748006885427ED300BF0C480068F7
:1030C000006808B9012000E0002020B14FF0FF3077
:1030D0000F49086091E025E0B82D01201C2E012049
:1030E000302E0120442E0120582E01206C2E01206C
:1030F00060000020640000206C0000205C000020C4
:1031000078000020880000207400002004ED00E01A
:103110008C00002068000020980000207000002033
:1031200084000020FA480068C068C4686668B54238
:1031300002D2F848066060E06069D4E902128A6051
:10314000D4E902214A60211D42688A4201D1E16826
:103150004160002262610168491E00E060E0016098
:10316000A06A98B1A06AD4E907128A60D4E907215D
:103170004A6004F1180142688A4201D1216A416023
:103180000022A2620168491E016000BF94F82C1061
:1031900001208840E04909680843DF490860E16A86
:1031A00001EB8101DD4A02EB81014868A060826881
:1031B000E260211D826800E020E051608160E16AE8
:1031C00001EB8101D54A02EB81026261E16A01EB08
:1031D0008101D24A52F82110491CE26A02EB8202B4
:1031E000CE4B43F82210CE49E06A0968C96A88428A
:1031F000FFF464AF4FF0010860E700BFC848006803
:10320000C06A00EB8000C54951F82000012801D9AF
:103210004FF00108C348006808B14FF0010804E00E
:10322000C1480068401CC04908604046BDE8F081C4
:1032300070B500240026BD48006850B900BF50207A
:1032400080F31188BFF34F8FBFF36F8F00BF00BFB4
:10325000FEE7FEF7B2FAB5480068401EB3490860C1
:103260000846006800287DD1B1480068002879D060
:103270005BE0B048C068C468A06AD4E907128A60FD
:10328000D4E907214A6004F1180142688A4201D159
:10329000216A41600022A2620168491E01606069E2
:1032A000D4E902128A60D4E902214A60211D4268F1
:1032B0008A4201D1E1684160002262610168491ED1
:1032C000016094F82C100120884093490968084354
:1032D00091490860E16A01EB8101904A02EB8101AA
:1032E0004868A0608268E260211D82685160816048
:1032F000E16A01EB8101894A02EB81026261E16AC4
:1033000001EB8101854A52F82110491CE26A02EB67
:103310008202824B43F822108149E06A0968C96A37
:10332000884202D301207F4908608248006808B9BA
:10333000012000E0002000289BD00CB1FFF70BFE1D
:103340007948056865B100BFFFF782FE10B1012022
:10335000744908606D1E002DF6D100207249086086
:10336000704800E009E0006838B101263007724972
:103370000860BFF34F8FBFF36F8FFEF745FA3046FB
:1033800070BD2DE9F04105460E466C48076864485B
:103390000068001DFEF78AFC50B96148006890F88B
:1033A0002C10012088405C49096881435A4801601B
:1033B000681CD8B9D6B1624948685949096888601B
:1033C000574982680968CA6055490968091D8268B9
:1033D000516053490968091D8160594A504909687B
:1033E0004A6111460968491C11601AE07C194C4871
:1033F00000684460BC4207D249480168091D514831
:103400000068FEF739FC0CE045480168091D40489A
:103410000068FEF731FC3F480068844201D23D4815
:103420000460BDE8F08141480068401C3F490860E5
:1034300070472DE9F04704460F464FF0000954B994
:1034400000BF502080F31188BFF34F8FBFF36F8F01
:1034500000BF00BFFEE70FB1012000E0002050B91F
:1034600000BF502080F31188BFF34F8FBFF36F8FE1
:1034700000BF00BFFEE72D48006808B9012000E04A
:10348000002050B900BF502080F31188BFF34F8F48
:10349000BFF36F8F00BF00BFFEE7FFF7C4FF2748F1
:1034A00006682068C5192068B04207D92068A8427C
:1034B0000BD9B54209D94FF0010906E02068A842AE
:1034C00001D8B54201D94FF001092560B9F1000FCB
:1034D00003D0A81B0021FFF754FFFFF7A9FE804689
:1034E000B8F1000F07D14FF0805013490860BFF3C7
:1034F0004F8FBFF36F8F4846BDE8F08770B5044625
:10350000002524B109480068F0B901201DE031E030
:10351000600000208C00002074000020B82D0120E5
:103520005C000020800000207C000020980000202B
:103530006C000020442E012004ED00E0700000200B
:103540006C2E012064000020002050B900BF5020E4
:1035500080F31188BFF34F8FBFF36F8F00BF00BFA1
:10356000FEE7FFF760FF00212046FFF70AFFFFF7A5
:103570005FFE05463DB94FF08050FD490860BFF33E
:103580004F8FBFF36F8F70BD2DE9F04707463E4662
:1035900056B900BF502080F31188BFF34F8FBFF39F
:1035A0006F8F00BF00BFFEE7F2480068864201D17E
:1035B00000242DE0FEF701F97569EF48D0F800808E
:1035C000EE48D0F80090FEF71FF9454501D04D4573
:1035D00001D102241CE0EA48854212D1B06A70B9D8
:1035E0000324002007E006F15401095C012901D100
:1035F000022402E0401C0128F5DB00BF08E00224A1
:1036000006E0E048854200D00DB9042400E0012422
:103610002046BDE8F08770B50446FEF7CEF814B931
:10362000D448006800E020460646F56AFEF7ECF84C
:10363000284670BD2DE9F0410546FEF719F900BF97
:103640005021EFF3118081F31188BFF34F8FBFF347
:103650006F8F00BF044615B9C648006800E02846D1
:103660000746FE6A00BF84F3118800BF3046BDE8FC
:10367000F0812DE9F04780460D464FF00009052DF9
:1036800001D2012000E0002050B900BF502080F39B
:103690001188BFF34F8FBFF36F8F00BF00BFFEE7EE
:1036A000052D00D30425FEF788F8B8F1000F02D1EC
:1036B000B048006800E040460446A66CAE4270D0B8
:1036C000B5420BD9AB48006884420DD0A9480068C8
:1036D000C06AA84208D84FF0010905E0A548006873
:1036E000844201D14FF00109E76AE16AA06C884287
:1036F00000D1E562A564A06900F0004010B9C5F1F1
:103700000500A06107EB87019F4A02EB8101606918
:10371000884201D1012000E00020B0B3201DFEF757
:10372000C5FA30B90120B8409849096881439748E3
:10373000016094F82C1001208840944909680843DE
:1037400092490860E16A01EB81018F4A02EB810135
:103750004868A0608268E260211D826851608160D3
:10376000E16A01EB8101884A02EB81026261E16A50
:1037700001EB8101844A52F82110491CE26A02EBF4
:103780008202814B43F8221000BFB9F1000F07D02D
:103790004FF0805076490860BFF34F8FBFF36F8FB3
:1037A00000BFFEF731F8BDE8F0877948006818B12E
:1037B00001207849086032E00020764908607348AB
:1037C0000068B0FA80F0C0F11F0101EB81006E4A81
:1037D00052F8200008B1012000E0002050B900BFDD
:1037E000502080F31188BFF34F8FBFF36F8F00BF5E
:1037F00000BFFEE701EB8102634B03EB82004268EE
:103800005268426000F108024368934202D1426864
:10381000526842604268D268564B1A6000BF7047D7
:1038200070B50546FDF7C9FF15B95248006800E0BC
:1038300028460446201DFEF739FA78B9E06A00EB05
:103840008000514951F8200040B994F82C10012013
:1038500088404E49096881434C480160A06A18B10C
:1038600004F11800FEF722FA211D4548FEF7F8F989
:10387000002009E004F15401095C012903D1002270
:1038800004F154010A54401C0128F3DBFDF7BCFF8E
:103890004148006828B1FDF790FFFFF75CFBFDF79A
:1038A000B3FF34480068844229D13B480068D0B156
:1038B0003748006808B9012000E0002050B900BF77
:1038C000502080F31188BFF34F8FBFF36F8F00BF7D
:1038D00000BFFEE74FF0805025490860BFF34F8FCF
:1038E000BFF36F8F0BE0264800682C4909688842B7
:1038F00003D100201F49086001E0FFF756FF70BDAB
:1039000010B502460020114652B900BF502383F380
:103910001188BFF34F8FBFF36F8F00BF00BFFEE76B
:10392000174C4B69A34201D1012300E0002373B17E
:103930001B4C8B6AA34201D1012300E0002333B961
:103940008B6A0BB9012300E0002303B1012010BDF5
:1039500070B505462C4655B900BF502080F311883C
:10396000BFF34F8FBFF36F8F00BF00BFFEE719E0BB
:1039700004ED00E05C0000206000002064000020F6
:103980006C2E0120582E0120B82D0120740000203B
:103990009800002080000020780000206C000020AB
:1039A000442E0120FE480068844245D0002C43D0BC
:1039B000FDF703FF2046FFF7A3FFD8B3201DFEF756
:1039C00075F994F82C1001208840F64909680843DD
:1039D000F4490860E16A01EB8101F34A02EB8101DD
:1039E0004868A0608268E260211D82685160816041
:1039F000E16A01EB8101EC4A02EB81026261E16A5A
:103A000001EB8101E84A52F82110491CE26A02EBFD
:103A10008202E54B43F82210E149E06A0968C96A6D
:103A2000884207D34FF08050E0490860BFF34F8FC2
:103A3000BFF36F8FFDF7E8FE70BD2DE9F04106463C
:103A40000027344656B900BF502080F31188BFF3D9
:103A50004F8FBFF36F8F00BF00BFFEE7FDF708FF7A
:103A600000BF5021EFF3118081F31188BFF34F8F16
:103A7000BFF36F8F00BF05462046FFF741FF0028C8
:103A800041D0CB480068C0BBC549E06A0968C96A33
:103A9000884203D301270120C6490860201DFEF794
:103AA00005F994F82C1001208840BE4909680843A4
:103AB000BC490860E16A01EB8101BB4A02EB81016C
:103AC0004868A0608268E260211D82685160816060
:103AD000E16A01EB8101B44A02EB81026261E16AB1
:103AE00001EB8101B04A52F82110491CE26A02EB55
:103AF0008202AD4B43F8221005E0FFE704F1180104
:103B0000AD48FEF7ADF800BF85F3118800BF384619
:103B1000BDE8F08110B516E0FDF74FFEA748C0687C
:103B2000C468201DFEF7C2F8A5480068401EA449DD
:103B30000860A4480068401EA2490860FDF764FEC2
:103B40002046FFF7FFF99F4800680028E4D110BD28
:103B500000BFFFF7DFFF944800680128F9D94FF054
:103B6000805092490860BFF34F8FBFF36F8FF0E72B
:103B70001CB5954800210B468222CDE9001093A187
:103B80009448FFF7AFF90446012C02D101F068FA1E
:103B90000446012C15D100BF502080F31188BFF3DB
:103BA0004F8FBFF36F8F00BF4FF0FF308A4908601F
:103BB00001208A490860002089490860FDF743FD1B
:103BC00010E0601C08B1012000E0002050B900BFE7
:103BD000502080F31188BFF34F8FBFF36F8F00BF6A
:103BE00000BFFEE77F4800681CBD10B500BF502035
:103BF00080F31188BFF34F8FBFF36F8F00BF00209A
:103C000076490860FDF7C4FD10BD75490868704726
:103C100070B5FDF72DFE002571480468204670BD83
:103C2000674800687047014611B95D48006800E0C8
:103C30000846024652B900BF502080F31188BFF3F6
:103C40004F8FBFF36F8F00BF00BFFEE702F134005C
:103C500070470246002101E0521C491C1078A5283B
:103C6000FAD0890888B270472DE9F04107460C4622
:103C700090461E4617B94A48006800E03846054697
:103C8000256005F134006060E86A2061286BE0611E
:103C9000286CA060A86C60610020A061052E12D085
:103CA0003F480068854202D1002020730FE0267350
:103CB000032E0CD1FFF7B7FBA86A08B102202073CE
:103CC000FFF7B6FA03E02846FFF75EFC2073B8F171
:103CD000000F04D0286BFFF7BCFF208401E0002018
:103CE0002084BDE8F0812DE9F04707460C46904658
:103CF0000026206848B3204641684968416000F1C9
:103D0000080142688A4202D14168496841604168BD
:103D1000D1F80C9000BF204641684968416000F12D
:103D2000080142688A4202D141684968416041689D
:103D3000CD6806EBC60007EB80014346012228460A
:103D4000FFF792FF761C4D45E5D13046BDE8F08780
:103D50002DE9F04105468846164600240527FFF761
:103D600062FB17480068804560D300BF7F1E07EBE9
:103D700087020D4B03EB820104EBC40205EB8200CA
:103D80000122FFF7B0FF0444002FEFD104EBC40180
:103D900005EB8100022214490968FFF7A4FF25E022
:103DA0005C00002074000020B82D012004ED00E02C
:103DB0009800002080000020442E0120582E012071
:103DC0006C000020680000209000002049444C4511
:103DD00000000000513B00088C000020780000200B
:103DE000700000209400002060000020044404EBD8
:103DF000C40105EB81000222FD490968FFF773FF4A
:103E0000044404EBC40105EB81000422F949FFF7E7
:103E10006AFF044404EBC40105EB81000322F64968
:103E2000FFF761FF04440EB100203060FFF700FA95
:103E30002046BDE8F08170B50446F048006808B936
:103E4000012000E0002050B900BF502080F311880D
:103E5000BFF34F8FBFF36F8F00BF00BFFEE7FFF7C9
:103E6000E2FAE74800682044E5490860FFF7E0F916
:103E70000546284670BD70B504460D4654B900BFCE
:103E8000502080F31188BFF34F8FBFF36F8F00BFB7
:103E900000BFFEE7DB48016818312046FDF7ECFE65
:103EA00001212846FFF76DFA70BD70B504460D4636
:103EB000164654B900BF502080F31188BFF34F8FCE
:103EC000BFF36F8F00BF00BFFEE7CC48006808B1AA
:103ED000012000E0002050B900BF502080F311887D
:103EE000BFF34F8FBFF36F8F00BF00BFFEE745F0FA
:103EF0000040C449096888616068C2490968C861AE
:103F0000C049826809680A62BE4909681831826836
:103F10005160BC49096818318160BA4909688C62EE
:103F20002168491C216001213046FFF72AFA70BD43
:103F300070B504460E46154654B900BF502080F3B4
:103F40001188BFF34F8FBFF36F8F00BF00BFFEE735
:103F50006068AC490968C861AA49826809680A6250
:103F6000A8490968183182685160A6490968183162
:103F70008160A44909688C622168491C21600DB1E7
:103F80004FF0FF3629463046FFF7FBF970BD70B59C
:103F90000346D868C16851B900BF502080F311882A
:103FA000BFF34F8FBFF36F8F00BF00BFFEE7886A7C
:103FB000D1E90745A560D1E90754656001F118040E
:103FC0004568A54201D10C6A446000258D620468F1
:103FD000641E04608948006800283DD14869D1E921
:103FE0000245A560D1E9025465600C1D4568A542F3
:103FF00001D1CC68446000254D610468641E0460F2
:1040000091F82C400120A0407F4C246820437E4C36
:104010002060CC6A04EB84047C4D05EB840460686A
:1040200088608568CD600C1D85686C608460CC6A92
:1040300004EB8404754D05EB84054D61CC6A04EBFB
:104040008404724D55F82440641CCD6A05EB850547
:104050006E4E46F8254010E06D4C6068C86185687A
:104060000D6201F1180485686C608460684D8D6292
:104070002C462468641C2C6000BF624CC86A24680B
:10408000E46AA04204D901220120624C206000E0D1
:104090000022104670BD70B502460B4657490968AC
:1040A00009B1012100E0002151B900BF502181F385
:1040B0001188BFF34F8FBFF36F8F00BF00BFFEE7C4
:1040C00043F000411160D06850B900BF502181F326
:1040D0001188BFF34F8FBFF36F8F00BF00BFFEE7A4
:1040E0001169D2E90154AC60D2E901456C604C68B9
:1040F000944201D194684C60002414610C68641EE1
:104100000C604169D0E90245A560D0E902546560C0
:10411000041D4D68A54201D1C4684C60002545616D
:104120000C68641E0C6090F82C400121A140364CB4
:1041300024682143344C2160C46A04EB8404334D69
:1041400005EB8404616881608D68C560041D8D681D
:104150006C608C60C46A04EB84042C4D05EB840510
:104160004561C46A04EB8404284D55F82440641C5E
:10417000C56A05EB8505254E46F82540214CC16AE8
:104180002468E46AA14202D90121224C216070BD59
:1041900010B5044654B900BF502080F31188BFF316
:1041A0004F8FBFF36F8F00BF00BFFEE7FDF705FB2A
:1041B000194800682060194800686060FDF724FB1A
:1041C00010BD1549096801601449096841607047CC
:1041D00070B505460C4655B900BF502080F31188D4
:1041E000BFF34F8FBFF36F8F00BF00BFFEE717E035
:1041F00064000020582E01206C2E01209800002021
:104200007C0000205C00002074000020B82D0120FC
:10421000442E012080000020840000207000002037
:1042200054B900BF502080F31188BFF34F8FBFF304
:104230006F8F00BF00BFFEE7FDF7BFFAFE480268C0
:104240006868131A2068401C08B9002619E0FB4969
:1042500028680968884206D06868904203D8012619
:10426000002020600DE02068984207D92068C01A1D
:1042700020602846FFF7A5FF002602E0002020600E
:104280000126FDF7C1FA304670BD0120EC490860F7
:104290007047014611B10A46506C00E0002070479B
:1042A00008B1024651647047E64908687047E6491C
:1042B000096809B9012005E0E449096809B9022043
:1042C00000E00020704770B505462C460026002D02
:1042D00067D0DC49E06A0968C96A88425AD2A06995
:1042E00000F0004028B9D7480068C06AC0F1050056
:1042F000A061E16A01EB8101D54A02EB81016069AD
:10430000884201D1012000E00020E0B3201DFDF72C
:10431000CDFC40B994F82C1001208840CD490968A3
:104320008143CC480160C7480068C06AE06294F8E5
:104330002C1001208840C74909680843C549086016
:10434000E16A01EB8101C24A02EB81014868A06089
:104350008268E260211D826851608160E16A01EB40
:104360008101BB4A02EB81026261E16A01EB8101DA
:10437000B74A52F82110491CE26A02EB8202B44BA0
:1043800043F8221004E0FFE7AE480068C06AE0622C
:10439000012606E0AB49A06C0968C96A884200D2D0
:1043A0000126304670BD70B505462C460026002D0E
:1043B00068D0A4480068844201D1012000E00020B8
:1043C00050B900BF502080F31188BFF34F8FBFF367
:1043D0006F8F00BF00BFFEE7E06C50B900BF5020F8
:1043E00080F31188BFF34F8FBFF36F8F00BF00BF03
:1043F000FEE7E06C401EE064A16CE06A884241D0B8
:10440000E06C00283ED1201DFDF750FC40B994F827
:104410002C10012088408F49096881438D48016034
:10442000A06CE062E06AC0F10500A06194F82C1075
:104430000120884087490968084386490860E16A85
:1044400001EB8101824A02EB81014868A060826829
:10445000E260211D826851608160E16A01EB8101A7
:104460007B4A02EB81026261E16A01EB8101784AD9
:1044700052F82110491CE26A02EB8202744B43F8A5
:1044800022100126304670BD2DE9F04706460F4642
:1044900034464FF00109002E7AD0E06C50B900BFCD
:1044A000502080F31188BFF34F8FBFF36F8F00BF91
:1044B00000BFFEE7A06CB84201D23D4600E0A56C0B
:1044C000E06AA84264D0E06C012861D15D480068D0
:1044D000844201D0012000E0002050B900BF5020EC
:1044E00080F31188BFF34F8FBFF36F8F00BF00BF02
:1044F000FEE7D4F82C80E562A06900F0004010B916
:10450000C5F10500A06108EB8801514A02EB810169
:104510006069884201D1012000E00020C0B3201D65
:10452000FDF7C4FB40B994F82C100120884049499C
:10453000096881434748016094F82C1001208840A5
:1045400044490968084343490860E16A01EB810175
:104550003F4A02EB81014868A0608268E260211D49
:10456000826851608160E16A01EB8101384A02EBA7
:1045700081026261E16A01EB8101354A52F8211042
:10458000491CE26A02EB8202314B43F8221000BF61
:10459000BDE8F0872B49096888692A490968C96A12
:1045A000C1F10501274A12689161704725480068EA
:1045B00030B12449096801F14C00C96C491C016003
:1045C0002048006870472DE9F04104460F46164622
:1045D0000CB9012000E0002050B900BF502080F34A
:1045E0001188BFF34F8FBFF36F8F00BF00BFFEE78F
:1045F000FDF7E3F813480068503050F8240080B904
:104600000121104800685430015556B13046FEF77C
:10461000B8FE4FF0805010490860BFF34F8FBFF3D2
:104620006F8FFDF7F1F8FDF7C8F8064800685030C5
:1046300050F8245005B311E07000002084000020E1
:10464000800000205C0000207800002098000020FE
:10465000B82D01207400002004ED00E037B10021E6
:10466000F7480068503040F8241005E0681EF4490F
:104670000968503141F824000021F14800685430A5
:104680000155FDF7C1F82846BDE8F0812DE9F04756
:1046900004460F4690461D46DDF820900CB90120D7
:1046A00000E0002050B900BF502080F31188BFF314
:1046B0004F8FBFF36F8F00BF00BFFEE7FDF77DF8A0
:1046C000DF4800685430005D02281AD0DC490968D0
:1046D000503101EB84000168B94301600121D848E1
:1046E000006854300155B9F1000F0AD04846FEF772
:1046F00048FE4FF08050D3490860BFF34F8FBFF39F
:104700006F8FFDF781F8FDF758F82DB1CC480068A0
:10471000503050F824002860C94800685430005DCB
:10472000022801D0002609E0C5490968503101EB93
:104730008400016821EA0801016001260021C048C7
:10474000006854300155FDF75FF83046BDE8F0874A
:104750002DE9F05F07460D4616469846DDF828A07D
:104760004FF0010B0DB9012000E0002050B900BF4F
:10477000502080F31188BFF34F8FBFF36F8F00BFBE
:1047800000BFFEE757B900BF502080F31188BFF388
:104790004F8FBFF36F8F00BF00BFFEE73C46FDF7B2
:1047A0000CF8BAF1000F05D004F1500050F82500C4
:1047B000CAF8000004F1540010F805900221415598
:1047C000B8F1050F29D2DFE808F027030D171C0008
:1047D00004F1500050F82500304304F1500141F835
:1047E00025002DE004F1500050F82500401C04F194
:1047F000500141F8250023E004F1500040F8256005
:104800001EE0B9F1020F04D004F1500040F8256019
:1048100001E04FF0000B13E012E08B48006808B98C
:10482000012000E0002050B900BF502080F3118823
:10483000BFF34F8FBFF36F8F00BF00BFFEE700BF16
:1048400000BFB9F1010F5BD16069D4E902128A603F
:10485000D4E902214A60211D42688A4201D1E168FF
:104860004160002262610168491E016094F82C10C9
:104870000120884075490968084374490860E16A65
:1048800001EB8101724A02EB81014868A0608268F5
:10489000E260211D826851608160E16A01EB810163
:1048A0006B4A02EB81026261E16A01EB8101684AB5
:1048B00052F82110491CE26A02EB8202644B43F871
:1048C0002210A06A08B9012000E0002050B900BF02
:1048D000502080F31188BFF34F8FBFF36F8F00BF5D
:1048E00000BFFEE75649E06A0968C96A884207D9ED
:1048F0004FF0805053490860BFF34F8FBFF36F8F65
:10490000FCF782FF5846BDE8F09F2DE9F84F80463E
:104910000D4617469946DDF828B001200090B8F101
:10492000000F0AD100BF502080F31188BFF34F8FD2
:10493000BFF36F8F00BF00BFFEE70DB9012000E09D
:10494000002050B900BF502080F31188BFF34F8F73
:10495000BFF36F8F00BF00BFFEE7FCF789FF44463F
:1049600000BF5021EFF3118081F31188BFF34F8F07
:10497000BFF36F8F00BF0646BBF1000F05D004F1F7
:10498000500050F82500CBF8000004F1540010F856
:1049900005A002214155B9F1050F29D2DFE809F040
:1049A00027030D171C0004F1500050F82500384370
:1049B00004F1500141F825002DE004F1500050F8B9
:1049C0002500401C04F1500141F8250023E004F1CA
:1049D000500040F825701EE0BAF1020F04D004F137
:1049E000500040F8257001E00020009013E012E034
:1049F0001548006808B9012000E0002050B900BF48
:104A0000502080F31188BFF34F8FBFF36F8F00BF2B
:104A100000BFFEE700BF00BFBAF1010F7BD1A06A63
:104A200008B9012000E00020A0B900BF502080F3A9
:104A30001188BFF34F8FBFF36F8F00BF00BFFEE73A
:104A40005C00002004ED00E07000002074000020F5
:104A5000B82D0120B5480068E8BB6069D4E90212AE
:104A60008A60D4E902214A60211D42688A4201D14C
:104A7000E1684160002262610168491E016094F8AA
:104A80002C1001208840AA4909680843A8490860F9
:104A9000E16A01EB8101A74A02EB81014868A0604D
:104AA0008268E260211D826851608160E16A01EBE9
:104AB0008101A04A02EB81026261E16A01EB81019E
:104AC0009C4A52F82110491CE26A02EB8202994B7F
:104AD00043F8221011E0FFE797494868E0618268D7
:104AE000226204F11801826851608160924AA262D8
:104AF00011460968491C116000BF9049E06A0968C5
:104B0000C96A884207D90B9810B101210B9801603E
:104B100001208B49086000BF86F3118800BF009810
:104B2000BDE8F88F2DE9F04705460E46904655B989
:104B300000BF502080F31188BFF34F8FBFF36F8FFA
:104B400000BF00BFFEE70EB9012000E0002050B911
:104B500000BF502080F31188BFF34F8FBFF36F8FDA
:104B600000BF00BFFEE7FCF783FE2C4600BF5021CC
:104B7000EFF3118081F31188BFF34F8FBFF36F8F75
:104B800000BF074604F1540010F806900221815539
:104B9000001F50F82600401C04F1500141F8260087
:104BA000B9F1010F72D1A06A08B9012000E000201C
:104BB00050B900BF502080F31188BFF34F8FBFF36F
:104BC0006F8F00BF00BFFEE75848006800283DD146
:104BD0006069D4E902128A60D4E902214A60211D89
:104BE00042688A4201D1E168416000226261016845
:104BF000491E016094F82C10012088404C49096836
:104C000008434B490860E16A01EB8101494A02EB24
:104C100081014868A0608268E260211D826851605D
:104C20008160E16A01EB8101424A02EB810262612B
:104C3000E16A01EB81013F4A52F82110491CE26A06
:104C400002EB82023B4B43F8221010E03A494868DD
:104C5000E0618268226204F118018268516081601B
:104C6000354AA26211460968491C116000BF3349E8
:104C7000E06A0968C96A884208D9B8F1000F02D011
:104C80000120C8F8000001202D49086000BF87F30B
:104C9000118800BFBDE8F0872DE9F04106460C46BB
:104CA0000CB9012000E0002050B900BF502080F373
:104CB0001188BFF34F8FBFF36F8F00BF00BFFEE7B8
:104CC00016B91E48006800E030460746FCF775FD3F
:104CD00007F15400005D022805D1002107F15400BE
:104CE0000155012500E00025FCF78EFD2846BDE8B2
:104CF000F0812DE9F04106460C46174616B90F48DB
:104D0000006800E030460546FCF757FD05F150000D
:104D100050F8248050F82400B84305F1500141F8C0
:104D20002400FCF771FD4046BDE8F08198000020AA
:104D300074000020B82D0120442E01205C000020CA
:104D4000800000202DE9F04104460D4616461F461E
:104D50004FF0000865602461B5420CD8F01BA169D2
:104D6000884202D34FF0010811E0211DFB48006882
:104D7000FCF782FF0BE0BE4204D2BD4202D34FF0EB
:104D8000010804E0211DF6480068FCF775FF404665
:104D9000BDE8F08170B504460D46164604E0A069F2
:104DA00005442046216A8847A06941192B463246AE
:104DB0002046FFF7C7FF0028F1D170BD70B505464A
:104DC0000E46E7480068C068C468201DFCF76EFF07
:104DD00094F8280000F0040028B132462946204605
:104DE000FFF7D8FF05E094F8280000F0FE0084F8F3
:104DF00028002046216A884770BD70B508E0D84871
:104E00000068C06804684FF0FF312046FFF7D6FF06
:104E1000D3480068006808B9012000E0002000289D
:104E2000EDD0CF480568CD480068CD490860CB4833
:104E3000056070BD70B50446FEF7E7FE0546C9483B
:104E40000068854204D2FFF7D8FF0120206001E00E
:104E500000202060C3480560284670BD7FB57FE014
:104E6000019800287CDB039C606908B9012000E000
:104E7000002010B9201DFCF719FF6846FFF7DAFF84
:104E8000054601980A2869D2DFE800F06805072E78
:104E9000365806082F3700BF00BF00BF94F828001F
:104EA00040F0010084F828000298A26981180346A6
:104EB0002A462046FFF746FFA8B194F8280000F0E4
:104EC000040038B10298A26981182A462046FFF7EB
:104ED00061FF05E094F8280000F0FE0084F8280047
:104EE0002046216A88473AE000BF94F8280000F085
:104EF000FE0084F8280032E000BF94F8280040F05B
:104F0000010084F828000298A061A06908B101207E
:104F100000E0002050B900BF502080F31188BFF39B
:104F20004F8FBFF36F8F00BF00BFFEE7A06941192D
:104F30002B462A462046FFF705FF10E094F828008C
:104F400000F0020018B92046FCF7E4FD05E094F8F3
:104F5000280000F0FE0084F8280000E000BF00BF39
:104F6000002201A980480068FDF76AFB00287FF451
:104F700077AF7FBDF8B505460C46FEF754FA684694
:104F8000FFF758FF0646009820BB44B9B54206D843
:104F9000FEF74EF931462846FFF710FF1CE03CB102
:104FA0006E480068006808B9012000E0002004464F
:104FB000A91B22466C480068FDF772FEFEF738F91F
:104FC00050B94FF0805069490860BFF34F8FBFF36D
:104FD0006F8F01E0FEF72CF9F8BD0146604A1268B8
:104FE00012680AB9012200E000220A600A6822B9A8
:104FF0005B4A1268D268106800E00020704708B56C
:1050000000BF6846FFF7E9FF044620460099FFF716
:10501000B1FFFFF723FFF4E710B5FCF7CEFB5248D2
:105020000068D0B95248FCF70BFE5248FCF708FE66
:105030004F484B4908604F484849086000220C21FE
:105040000A20FCF7C7FE484908600846006820B1FE
:1050500049A145480068FDF7D6FDFCF7D5FB10BD1A
:105060001CB50024FFF7D8FF3F48006858B14448FA
:10507000022100234FF48272CDE9001041A1434880
:10508000FDF730FF044654B900BF502080F311886B
:10509000BFF34F8FBFF36F8F00BF00BFFEE7204607
:1050A0001CBD2DE9F04706460D4617469846DDE93A
:1050B00008940DB1012000E0002050B900BF50203D
:1050C00080F31188BFF34F8FBFF36F8F00BF00BF16
:1050D000FEE7FFF7A1FF2660A561C4F81C80C4F8B5
:1050E0002090201DFCF7B9FD2FB194F8280040F066
:1050F000040084F82800BDE8F0872DE9FC47054648
:105100000E4617469846DDF828902C20FCF759FCEF
:10511000044654B1002084F8280043463A463146FC
:105120002846CDE90094FFF7BCFF2046BDE8FC8788
:105130002DE9FE4304460D4616461F46DDF828803D
:105140004FF0000924BB00BF502080F31188BFF34B
:105150004F8FBFF36F8F00BF00BFFEE7A00000209E
:105160009C000020AC000020A400002004ED00E022
:10517000802E0120942E0120546D725100000000F9
:10518000A8000020546D722053766300FF4F000882
:105190007E48006810B3009501960294062D15DA3A
:1051A000FFF785F8022808D1002342466946774870
:1051B0000068FCF7CFFE814610E000231A466946DE
:1051C00072480068FCF7C6FE814607E000233A46B5
:1051D00069466E480068FDF70AF981464846BDE811
:1051E000FE836B48006808B1012000E0002050B940
:1051F00000BF502080F31188BFF34F8FBFF36F8F34
:1052000000BF00BFFEE762480068704701460A46DB
:1052100051B900BF502080F31188BFF34F8FBFF307
:105220006F8F00BF00BFFEE79069704770B50546FD
:105230000E462C4655B900BF502080F31188BFF3AD
:105240004F8FBFF36F8F00BF00BFFEE7FCF7B5FACB
:1052500036B194F8280040F0040084F8280005E0F6
:1052600094F8280000F0FB0084F82800FCF7CCFA42
:1052700070BD70B50446264654B900BF502080F377
:105280001188BFF34F8FBFF36F8F00BF00BFFEE7E2
:10529000FCF793FA96F8280000F0040008B90025FE
:1052A00000E00125FCF7B0FA284670BD10B50146B4
:1052B0000A4651B900BF502383F31188BFF34F8FC3
:1052C000BFF36F8F00BF00BFFEE7506810BD0146FF
:1052D0000A4651B900BF502080F31188BFF34F8FA9
:1052E000BFF36F8F00BF00BFFEE71068704770B557
:1052F0000446264654B900BF502080F31188BFF3FE
:105300004F8FBFF36F8F00BF00BFFEE7FCF755FA6A
:1053100096F8280000F0010008B9002500E00125FA
:10532000FCF772FA284670BD70B50446254654B99C
:1053300000BF502080F31188BFF34F8FBFF36F8FF2
:1053400000BF00BFFEE7FCF738FAEE69FCF75CFA35
:10535000304670BD70B504460D46264654B900BFB0
:10536000502080F31188BFF34F8FBFF36F8F00BFC2
:1053700000BFFEE7FCF721FAF561FCF745FA70BDC6
:105380000146486A7047416270470000A40000204F
:10539000A80000207047032A40F2308010F0030C70
:1053A00000F0158011F8013BBCF1020F624498BF78
:1053B00011F801CB00F8013B38BF11F8013BA2F115
:1053C000040298BF00F801CB38BF00F8013B11F090
:1053D000030300F05880083AC0F0088051F8043BFD
:1053E000083A51F804CBA0E80810F5E7121D5CBF9D
:1053F00051F8043B40F8043BAFF30080D20724BFD0
:1054000011F8013B11F801CB48BF11F8012B24BF63
:1054100000F8013B00F801CB48BF00F8012B7047B2
:1054200002F0FF0343EA032242EA024200F05FB8BF
:105430004FF0000200B5134694469646203922BF2D
:10544000A0E80C50A0E80C50B1F12001BFF4F7AF78
:10545000090728BFA0E80C5048BF0CC05DF804EB5A
:10546000890028BF40F8042B08BF704748BF20F8C8
:10547000022B11F0804F18BF00F8012B70477047C6
:1054800070477047704710B5203AC0F00B80B1E804
:105490001850203AA0E81850B1E81850A0E8185069
:1054A000BFF4F5AF5FEA027C24BFB1E81850A0E872
:1054B000185044BF18C918C0BDE810405FEA827C8C
:1054C00024BF51F8043B40F8043B08BF7047D207A3
:1054D00028BF31F8023B48BF11F8012B28BF20F844
:1054E000023B48BF00F8012B70474FF0000204292F
:1054F000C0F0128010F0030C3FF49CAFCCF1040C10
:10550000BCF1020F18BF00F8012BA8BF20F8022B36
:10551000A1EB0C01FFF78EBF5FEAC17C24BF00F84E
:10552000012B00F8012B48BF00F8012B704775468E
:1055300000F02CF8AE4605006946534620F00700FF
:10554000854618B020B5FAF7F1FFBDE820404FF0CE
:1055500000064FF000074FF000084FF0000B21F05D
:105560000701AC46ACE8C009ACE8C009ACE8C0092A
:10557000ACE8C0098D46704710B50446AFF3008013
:105580002046BDE81040FAF748BE000000487047CA
:10559000A82E01204FF04070E1EE100A7047000085
:1055A000C055000800000020B0000000C401000841
:1055B00070560008B000002058340100E0010008D7
:1055C000007A030A0000000000000000010203044A
:1055D0000607080900000000010203040102030499
:1055E000060708090000000000000000000000009D
:1055F000AAAAAAAA00000000000000000000000003
:10560000000000000000000000000000000000009A
:10561000000000000000000000000000000000008A
:10562000000000000000000000000000000000007A
:10563000000000000000000000000000000000006A
:10564000000000000000000000000000000000005A
:105650000000000004000000000000000000000046
:10566000000000000000000000000000000000003A
:040000050800018965
:00000001FF
