:020000040800F2
:1000000098540120E10C0008BD0A0008BF0A00084E
:10001000C30A0008C70A0008CB0A00080000000055
:100020000000000000000000000000009D0100082A
:10003000CF0A000800000000F9010008E3310008C1
:10004000FB0C0008FB0C0008FB0C0008FB0C000874
:10005000FB0C0008FB0C0008FB0C0008FB0C000864
:10006000FB0C0008FB0C0008FB0C0008FB0C000854
:10007000FB0C0008FB0C0008FB0C0008FB0C000844
:10008000FB0C0008FB0C0008FB0C0008FB0C000834
:10009000FB0C0008FB0C0008FB0C0008FB0C000824
:1000A000FB0C0008FB0C0008FB0C0008FB0C000814
:1000B000FB0C000881320008FB0C0008FB0C000858
:1000C000FB0C0008FB0C0008FB0C0008FB0C0008F4
:1000D000FB0C0008458A0008B5770008FB0C0008F7
:1000E000FB0C0008FB0C0008FB0C0008FB0C0008D4
:1000F000FB0C0008FB0C0008FB0C0008FB0C0008C4
:10010000FB0C0008FB0C0008FB0C0008FB0C0008B3
:10011000FB0C0008FB0C0008FB0C0008FB0C0008A3
:10012000FB0C0008FB0C0008FB0C0008FB0C000893
:10013000FB0C0008FB0C0008FB0C0008FB0C000883
:10014000FB0C0008FB0C0008FB0C0008FB0C000873
:10015000FB0C0008FB0C0008FB0C0008FB0C000863
:10016000FB0C0008FB0C0008FB0C0008FB0C000853
:10017000FB0C0008FB0C0008FB0C0008FB0C000843
:10018000FB0C0008FB0C0008DFF80CD041F032FF3C
:100190000048004705090008985401202C4B1968B5
:1001A0000868B0E8F04F80F30988BFF36F8F4FF015
:1001B000000080F3118870470000000008480068C4
:1001C000006880F308884FF0000080F3148862B65E
:1001D00061B6BFF34F8FBFF36F8F00DF00BF00BF6B
:1001E00008ED00E0DFF80C00016841F470010160E7
:1001F000704700BF88ED00E0EFF30980BFF36F8F19
:10020000134B1A681EF0100F08BF20ED108A20E96A
:10021000F04F106009B44FF0500080F31188BFF325
:100220004F8FBFF36F8F05F07CFB4FF0000080F322
:10023000118809BC19680868B0E8F04F1EF0100F6B
:1002400008BFB0EC108A80F30988BFF36F8F704746
:1002500070010020EFF3058070470000FD48006842
:10026000401CFC490860704737E04FF0FF31FA4806
:10027000006804F05AF818B90A2005F0FCF92CE0DF
:10028000F64808F013FC012810D02021F44800683B
:1002900003F059FB00231A461946EF48006803F0A3
:1002A00015FF4FF47A7005F0E6F916E0ED49EE48D7
:1002B00008F0A4FD012804D10102E948006803F018
:1002C00042FB00231A461946E348006803F0FEFE8D
:1002D00047F2305005F0CFF900BFC6E71CB53DE04E
:1002E00042F2107005F0C7F94FF0FF31DA480068AC
:1002F00004F01BF800B931E0D84808F0D7FB01281A
:100300000CD02021D648006803F01DFB00231A46BC
:100310001946D148006803F0D9FE1FE0D14903C94E
:10032000CDE90001684608F035FE01280ED18102B2
:10033000CB48006803F007FB4FF40061C848006831
:1003400003F001FBC748DDE9001206C000231A468E
:100350001946C148006803F0B9FE00BFC0E71AE0C3
:1003600008F05CF9C4B28CB9C04890ED000ABD48F1
:1003700080ED1C0ABE4890ED000ABA4880ED1B0AC9
:100380004FF40071B648006803F0DDFA40F6B8306B
:1003900002F03FFF00BFE3E708B52024012539E064
:1003A0004FF0FF3000231A4621460090AC48006809
:1003B00003F0C5FB07464FF0FF31A748006803F084
:1003C000B4FF012825D10022AA49A44808F09CFBCB
:1003D0000646012E09D12021A148006803F058FCEF
:1003E000A5A042F0B1F901250BE0012D05D10025B2
:1003F000A04A9A49ABA042F0A7F94FF4FA6005F081
:100400003AF900231A4619469348006803F05EFE45
:1004100000BF00BFC4E708B54FF0FF300123002242
:10042000102100908E48006803F089FB5EE00A20EE
:10043000002301224FF4706100908948006803F0A6
:100440007EFB0446002C3FD04FF0FF31A1480068EE
:1004500003F06BFFC0B304F4806010B1814807F073
:10046000DFFE04F4006010B17E4807F0BEFE04F425
:10047000007050B17B4890ED1B1AF0EE410A90EDF0
:100480001C1AB0EE410A07F0B3FD04F48070A0B16D
:100490007448083007F0A1FE724991F8740007F023
:1004A00014FE0546284607F008FE6E48D0ED1A0AED
:1004B000B0EE600A07F0DEFD00BF00231A461946C1
:1004C0008448006803F002FE4FF0FF318148006865
:1004D00003F02BFF48B100BF30F066FE00231A4640
:1004E00019467C48006803F0F1FD00BF9FE705F066
:1004F00069FC04463AE04FF0FF315748006803F0CA
:1005000014FF012814D108F04FFA054600231A46BB
:1005100019465148006803F0D9FD012D07D101218A
:100520004F48006803F00FFA002004F0E5FD00BF1B
:1005300005F048FC001B47F23051884201D30120EE
:1005400000E0002001280DD101214548006803F09A
:100550009FFB4FF400514248006803F0F4F905F0A6
:1005600031FC044640F6B83005F085F8C3E708B51D
:1005700017E04FF0FF30002301225103009038486C
:10058000006803F0DCFA044604F0010040B908F00A
:1005900054FA51A042F0D8F840F6B83005F06BF8A4
:1005A00000BFE6E701460A46C81701EB90708010CD
:1005B000A1EB800028B9642091FBF0F300FB13103D
:1005C00030B94FF4C87091FBF0F300FB131008B979
:1005D000012070470020FCE71CB54FF0FF300123DD
:1005E0000022102100901E48006803F0A8FA05F0D0
:1005F000E9FB0190C1E04FF47A7101A804F0D6FF45
:1006000018488079401C17498871084680793C2831
:100610007EDB0020887108464079401C48710846FE
:1006200040793C2874DB0020487108460079401C62
:1006300008710846007918286ADB0020087108460E
:100640004078401C48700846C079401CC871084674
:10065000C0795EE018010020F8000020780000203A
:10066000000100200000002074CA05081C020020C0
:1006700020020020B80000205B4C4F475D203E3E2A
:100680003E205769466920436F6E6E6563746564EA
:10069000205375636365737366756C6C79210D0AFD
:1006A000000000005B4C4F475D20574946492064DD
:1006B0006973636F6E6E6563742C20535349443ABB
:1006C0002025732C2050415353574F52443A202534
:1006D000730D0A00FC0000205B4C4F475D2045581D
:1006E00043455054494F4E3A2041545F494E495476
:1006F000206661696C65642C207472696767657235
:10070000696E67207265736574210D0A0000000030
:100710002DE0072801DD0120C8719A4800789A4928
:100720000C5C98480078022805D196494888FFF764
:1007300039FF00B11D2493484078A04210DD01200C
:100740009049487008460078401C087008460078B8
:100750000C2805DD0120087008464088401C4880B0
:100760004FF400618948006803F0EDF800BF4FF4D2
:1007700080618648006803F0E6F83CE70FE041F24C
:10078000883004F078FF8248006840B180480068F3
:1007900005F067FE0446A1007EA041F0D5FFEEE71C
:1007A0007CB506464FF0FF30012300221021009057
:1007B0007648006803F0C3F905460020022103468D
:1007C0000A02CDE900107CA1AFF24F0004F047FC13
:1007D00000216E48006803F05BFA00F0010058B990
:1007E0007948072100234FF40072CDE9001077A16A
:1007F000AFF2053004F033FC0020032103464FF430
:100800000072CDE9001076A1AFF2734004F027FC2E
:100810000020082103468022CDE9001074A1AFF228
:10082000472004F01CFC0020082103464A01CDE9C2
:10083000001072A1AFF2C92004F011FC002153484E
:10084000006803F025FA00F0010058B900200721E4
:1008500003464FF40072CDE900106BA1AFF2713086
:1008600004F0FDFB0020062103464FF40072CDE9A1
:10087000001067A1AFF2614004F0F1FB654805216B
:1008800000234FF40072CDE9001063A1644804F026
:10089000E6FB644804210023CA01CDE9001062A1EF
:1008A000AFF20B5004F0DBFB002004210346CA0129
:1008B000CDE900105EA1AFF2595004F0D0FB5E48C4
:1008C000032100234FF40072CDE900105BA1AFF2C9
:1008D000F35004F0C4FB00242D48032100234FF4FF
:1008E0000072CDE9001057A1AFF2836004F0B7FBAE
:1008F0000446012C02D055A041F026FF002004F050
:10090000FBFB7CBD1CB54FF4407000F0FBF902F01E
:100910004FFC012003F0BBFC58490860012003F0A4
:10092000B6FC5749086003F001F818490860002038
:10093000012103468A02CDE9001052A1544804F077
:100940008EFB0020012103468A02CDE9001051A14F
:10095000534804F084FB0020012103468A02CDE9BC
:10096000001050A1AFF2C71004F079FB05F0DBF9DD
:1009700006E04FA041F0E8FE4FF47A7002F049FC27
:10098000F7E7000000000020C22C0408000100204E
:10099000140100205B4854545020537461636B2051
:1009A00052656D61696E65645D3A20256C64204214
:1009B000797465730D0A00005461736B52756E5F34
:1009C00054657374000000000801002076546173C0
:1009D0006B52756E5F41545F496E69740000000090
:1009E000765461736B52756E5F574946490000003B
:1009F00054696D655469636B000000004578636558
:100A00007074696F6E00000041545F496E69740034
:100A100055490000040100204C6F67527800000027
:100A2000A17800080C010020574946490000000049
:100A300044485431310000001001002041545F54FB
:100A4000696D650041545F48545450004552524FFF
:100A5000523A2041545F48545450205461736B20E3
:100A6000437265617465204661696C6564206475D4
:100A70006520746F204F4F4D210D0A00F8000020B3
:100A8000FC000020755F696E697470616765000025
:100A9000A9840008755F686F6D6570616765000007
:100AA000898200087379735F696E697400000000C1
:100AB0006572726F722E2E2E0D0A0000704700BFF5
:100AC000FEE700BFFEE700BFFEE700BFFEE770479E
:100AD0000CB50020019000907648006840F480300A
:100AE0007449086000BF7348006800F4003000904B
:100AF0000198401C0190009818B90198B0F5A04FDA
:100B0000F1D16C48006800F4003010B10120009071
:100B100001E0002000900098012846D1654840304F
:100B2000006840F0805063494031086062480068C6
:100B300040F44040604908605E48083000685D4904
:100B4000083108600846006840F400400860084624
:100B5000006840F4A05008605848091F0860081F4A
:100B6000006840F08070091F086000BF51480068AD
:100B700000F000700028F9D040F20570504908607C
:100B80004C480830006820F003004A4908310860EA
:100B90000846006840F00200086000BF4548083081
:100BA000006800F00C000828F8D10CBD10B54548CD
:100BB000006840F47000434908603E48006840F017
:100BC00001003C49086000203A4908310860394872
:100BD00000683D490840374908603C48091D0860E5
:100BE000081F006820F48020091F08600020314998
:100BF0000C310860FFF76CFF4FF00060314980391D
:100C0000086010BD70B500200022022300240221DC
:100C1000284D08352D6805F00C0020B1042806D0B9
:100C2000082834D107E02A4D2A4E356033E02A4D9A
:100C3000284E35602FE01F4D2D1D2D68C5F38054C3
:100C40001C4D2D1D2D6805F03F0154B1224DB5FB03
:100C5000F1F5184E361D3668C6F3881605FB06F208
:100C600009E01B4DB5FBF1F5124E361D3668C6F393
:100C7000881605FB06F20F4D2D1D2D68C5F30145A5
:100C80006D1C6B00B2FBF3F5124E356003E0104DA6
:100C9000104E356000BF00BF064D08352D68C5F306
:100CA00003150E4E705D0B4D2D68C540094E356025
:100CB00070BD00000038024000700040085440073A
:100CC000003C024088ED00E0FFFFF6FE10300024FB
:100CD0000024F4001C01002000127A0020010020F2
:100CE0000648804706480047FEE7FEE7FEE7FEE7C6
:100CF000FEE7FEE7FEE7FEE7FEE7FEE7AD0B0008D6
:100D00008901000832490143324A1160704770B5C9
:100D1000002100230F22C4781CB32E4C246804F455
:100D2000E064C4F5E064C4F30721C1F10404E3B254
:100D30000A4144789C40E1B28478144021430C0776
:100D4000210E254C05786155047804F01F05012417
:100D5000AC4005786D11AD0005F1E025C5F8004106
:100D600009E0047804F01F050124AC401B4D06780F
:100D7000761145F8264070BD194A0A400243154BCA
:100D80001B1F1A60704739B1124A121D12680243C4
:100D9000104B1B1D1A6006E00E4A121D126882439A
:100DA0000C4B1B1D1A607047042808D14FF0E0213E
:100DB000096941F004014FF0E022116107E04FF0B2
:100DC000E021096921F004014FF0E0221161704730
:100DD0000000FA050CED00E000E400E080E100E036
:100DE00080FFFF1F016821F0010101600021016007
:100DF00041608160C160016121214161DB4988421C
:100E000004D13D21D94A103A91608CE0D74918317C
:100E1000884205D14FF47461D44A103A916082E05F
:100E2000D2493031884205D14FF47411CF4A103A7B
:100E3000916078E0CD494831884205D14FF0746126
:100E4000CA4A103A91606EE0C8496031884204D1C4
:100E5000C749C64A103AD16065E0C4497831884232
:100E600004D1C449C14A103AD1605CE0BF49903115
:100E7000884204D1C049BD4A103AD16053E0BB4911
:100E8000A831884205D14FF03D51B84A103AD1609F
:100E900049E0BA49884204D13D21B84A083A116074
:100EA00041E0B6491831884205D14FF47461B34A24
:100EB000083A116037E0B1493031884205D14FF42A
:100EC0007411AE4A083A11602DE0AC4948318842AD
:100ED00005D14FF07461A94A083A116023E0A7498F
:100EE0006031884204D1A249A44A121F11601AE05D
:100EF000A2497831884204D19E49A04A121F11604C
:100F000011E09E499031884204D19B499B4A121FAF
:100F1000116008E09949A831884204D14FF03D5151
:100F2000964A121F1160704710B500220268944B58
:100F30001A40CC680B6823434C6923438C692343D4
:100F4000CC6923430C6A23434C6A23438C6A2343B2
:100F50004C6B23438C6B23431A430260426922F09B
:100F60000702D1E90B3423431A4342610B69436002
:100F70004B6883608B68C36010BD002101604160D5
:100F80008160C160016141618161C1610162416251
:100F90008162C162016341638163704721B102686C
:100FA00042F00102026003E0026822F001020260E6
:100FB000704721B1026842F40042026003E0026817
:100FC00022F400420260704721B1026842F0200220
:100FD000026003E0026822F0200202607047416074
:100FE00070470146486880B2704722B1036843F4F5
:100FF0000023036003E0036823F40023036001611E
:10100000704721B1026842F48022026003E0026866
:1010100022F48022026070470AB1016100E0C160E1
:101020007047014600200A6802F400220AB101203C
:1010300000E000207047014600200A6802F001022B
:101040000AB1012000E000207047014600204A69F3
:1010500002F03800704730B503460A4600200024ED
:10106000464DAB4202D24149103901E043491039A3
:1010700002F000550DB14C6800E00C68414D2C4069
:1010800004EA02050DB1012000E0002030BD024657
:101090003A4B9A4202D23548103801E037481038AE
:1010A00001F000531BB1374B0B40C36002E0354BDE
:1010B0000B408360704710B501F080034BB122B143
:1010C000436943F08003436103E0436923F08003F5
:1010D000436180290BD02AB1036801F01E04234329
:1010E000036004E0036801F01E04A343036010BD25
:1010F00070B50246002000240025204EB24202D2E4
:101100001A4B103B01E01D4B103B1F4E0E4036B1F9
:101110001E2606EAD124166806EA040502E056698E
:1011200006F0800501F000560EB15C6800E01C6816
:10113000144E344004EA010616B10DB1012000E05E
:10114000002070BD02460D4B9A4202D2074810386B
:1011500001E00A48103801F000531BB1094B0B4065
:10116000C36002E0074B0B40836070471060024091
:101170003D000020400F002000003D201064024090
:101180003F801CF07D0F7D0F3C0F3C0F10B50446D7
:101190009848844208D10121084600F086FB0021CE
:1011A000012000F082FB76E09348844208D10121BF
:1011B000022000F07AFB0021022000F076FB6AE0BA
:1011C0008E48844208D10121042000F06EFB0021EA
:1011D000042000F06AFB5EE08948844208D10121C6
:1011E000082000F062FB0021082000F05EFB52E0C6
:1011F0008448844208D10121102000F056FB0021D0
:10120000102000F052FB46E07F48844208D10121C3
:10121000202000F04AFB0021202000F046FB3AE0AD
:101220007A48844208D10121402000F03EFB002191
:10123000402000F03AFB2EE07548844208D101219D
:10124000802000F032FB0021802000F02EFB22E005
:101250007048844208D10121801500F026FB00214E
:10126000A01500F022FB16E06B48844208D1012152
:10127000401500F01AFB0021601500F016FB0AE093
:101280006648844207D10121001500F00EFB0021C1
:10129000201500F00AFB10BDF0B50A46002100231E
:1012A000002400BF3DE0012505FA01F3156805EAB9
:1012B00003049C4234D105684F000326BE40B54369
:1012C000056015794E00B54006683543056015790F
:1012D000012D02D01579022D16D185684F00032605
:1012E000BE40B543856055794E00B54086683543AC
:1012F0008560456801268E40B5434560456896790E
:101300008E40B6B235434560C5684F000326BE40E7
:10131000B543C560D5794E00B540C6683543C56054
:10132000491C1029BFD3F0BD4FF6FF7101600021A9
:10133000017141718171C171704708B54FF48032FC
:101340000092009A0A430092009AC261C161009A19
:10135000C261C2690092C269009208BD02460020C3
:1013600013690B400BB1012000E0002070470146DB
:10137000086980B270470246002053690B400BB1E8
:10138000012000E0002070470146486980B27047A4
:1013900001837047418370470AB1018300E04183B4
:1013A00070474161704742694A4042617047F0B5F9
:1013B000002300244D07ED0E02FA05F3CE1000F1D4
:1013C000200555F826504E07F70E0F26BE40B543B0
:1013D000CF1000F1200646F82750CE1000F120056E
:1013E00055F8265045EA0304CE1000F1200545F8D3
:1013F0002640F0BD00000240000402400008024008
:10140000000C02400010024000140240001802408C
:10141000001C02400020024000240240002802403C
:10142000F948006840F00100F74908600020F649DB
:1014300008310860F4480068F4490840F24908603F
:10144000F348091D0860F348EF4984310860F0480B
:101450001038091D0860EC48006820F48020EA4933
:1014600008600020E8490C310860E7498C310860C9
:1014700070470021E44A921C1170114608707047B1
:1014800010B501460022002300204A11012A02D192
:10149000DD4C236808E0022A03D1DB4C703423685A
:1014A00002E0D94C7434236801F01F0201249440F7
:1014B0001C400CB1012000E0002010BD38B5002018
:1014C00000900024002500BF3120FFF7D9FF05461A
:1014D0000098401C00900098B0F5A04F01D0002D5E
:1014E000F2D03120FFF7CCFF08B1012400E0002446
:1014F000204638BD01460020C34A106820F0F8009D
:1015000040EAC10010607047C3490860704700217D
:10151000BD4A703211701170012802D004280AD11E
:1015200004E00121B84A7032117005E00521B64A85
:101530007032117000E000BF00BF7047B74908600B
:10154000704770B5049C41EA82150126C6EB53062C
:1015500045EA0645054345EA0465AB4E361D356050
:1015600070BDAD4908667047820142EA0172A64B20
:1015700084331A607047A8498866704710B58301A4
:1015800043EA016343EA02739F4C8834236010BD31
:10159000A14908677047A049C86470470246002007
:1015A000994B0833186820F0EC6042EA01031843B5
:1015B000954B08331860704702460020924B083361
:1015C000186820F0784042EA010318438E4B083334
:1015D00018607047014600208B4A0832106820F0DE
:1015E000030008431060704787480830006800F027
:1015F0000C00704701460020834A0832106820F032
:10160000F000084310607047014600207E4A08320F
:10161000106820F4E0500843106070470146002035
:10162000794A0832106820F4604040EAC100106036
:101630007047F0B500210022002402250026022375
:10164000714F08373F6807F00C0121B1042905D01C
:10165000082937D105E0724F076036E0714F076007
:1016600033E0694F3F1D3F68C7F38056664F3F1D0B
:101670003F6807F03F036EB16A4FB7FBF3F7DFF83F
:1016800088C10CF1040CDCF800C0CCF3881C07FB0B
:101690000CF40CE0624FB7FBF3F7DFF86CC10CF110
:1016A000040CDCF800C0CCF3881C07FB0CF4564F8C
:1016B0003F1D3F68C7F301477F1C7D00B4FBF5F772
:1016C000076002E0564F076000BF00BF4E4F08376B
:1016D0003F6807F0F0010909534F7A5C0768D7406B
:1016E0004760494F08373F6807F4E051890A4E4F79
:1016F0007A5C4768D7408760434F08373F6807F4F4
:101700006041490B484F7A5C4768D740C760F0BDDD
:10171000002100F44072B2F5407F0AD13A4A083203
:10172000116821F4F811414A02401143364A083247
:101730001160354A70321268C0F30B031A43324B02
:1017400070331A607047354944390860704733492F
:1017500040390860704736490860704701460020EC
:10176000294A8C32106820F01F004A1E1043264A76
:101770008C321060704701460020234A8C3210687A
:1017800020F4F8504A1E40EA02201F4A8C321060B2
:101790007047014600201C4A8C32106820F440102B
:1017A00008431060704701460020174A8C321068C9
:1017B00020F4400008431060704701460020124AA0
:1017C0008C32106820F4403008431060704719498B
:1017D0000860704739B10C4A3032126802430A4B34
:1017E00030331A6006E0084A303212688243064BF2
:1017F00030331A607047F9B1034A34321268024339
:10180000014B34331A601CE000380240FFFFF6EA57
:10181000103000240030002000004742800E474274
:101820000024F40000127A0030010020FFFCFF0FBA
:101830005C014742E01147428F4A126882438E4B57
:101840001A60704739B18C4A121D126802438A4BE4
:101850001B1D1A6006E0884A121D12688243864BDF
:101860001B1D1A60704739B1834A0C32126802435B
:10187000814B0C331A6006E07F4A0C3212688243B7
:101880007D4B0C331A60704739B17B4A10321268B5
:101890000243794B10331A6006E0774A103212681F
:1018A0008243754B10331A60704739B1724A243A3B
:1018B00012680243704B243B1A6006E06E4A243AD9
:1018C000126882436C4B243B1A60704739B16A4AF4
:1018D000203A12680243684B203B1A6006E0664AD1
:1018E000203A12688243644B203B1A60704739B13A
:1018F000614A1C3A126802435F4B1C3B1A6006E0C7
:101900005D4A1C3A126882435B4B1C3B1A6070476D
:1019100039B1594A143A12680243574B143B1A60C2
:1019200006E0554A143A12688243534B143B1A603E
:10193000704739B1504A103A126802434E4B103B7F
:101940001A6006E04C4A103A126882434A4B103B38
:101950001A60704739B1484A1C3212680243464B3C
:101960001C331A6006E0444A1C3212688243424B20
:101970001C331A60704739B13F4A20321268024363
:101980003D4B20331A6006E03B4A20321268824306
:10199000394B20331A60704739B1374A2432126804
:1019A0000243354B24331A6006E0334A243212686E
:1019B0008243314B24331A60704739B12E4A2C329E
:1019C000126802432C4B2C331A6006E02A4A2C3250
:1019D00012688243284B2C331A60704739B1264A6B
:1019E000303212680243244B30331A6006E0224A38
:1019F000303212688243204B30331A60704701281E
:101A000008D11D493C31096841F008011A4A3C32AD
:101A1000116007E018493C31096821F00801164AB5
:101A20003C321160704739B1134A273A12780243A9
:101A3000114B273B1A7006E00F4A273A127882436F
:101A40000D4B273B1A7070470B484030006840F040
:101A50008070094940310860704701460020064AFD
:101A6000283A12680A400AB1012000E000207047BD
:101A700001492639087070473438024010B50446D1
:101A8000FB48844208D101218014FFF752FF002156
:101A9000A014FFF74EFF3CE0F648844208D1012134
:101AA0000014FFF735FF00212014FFF731FF30E06D
:101AB000F148844208D10121C013FFF729FF00211A
:101AC000E013FFF725FF24E0EC48844208D1012110
:101AD0004014FFF72EFF00216014FFF72AFF18E0E3
:101AE000E748844209D101210805FFF722FF0021C0
:101AF0004FF48010FFF71DFF0BE0E248844208D14D
:101B000001214805FFF715FF00214FF40010FFF7F2
:101B100010FF10BD10B50022028802F441520B885C
:101B20004C8823438C882343CC8823430C8923434C
:101B30004C8923438C892343CC8923431A43028055
:101B4000838B4FF2FF74234083830B8A038210BD83
:101B50002DE9F04F0025022300244FF00109002257
:101B60000026002794469046B0F81CA04FF2400B88
:101B70000AEA0B0AA0F81CA04FF0020AA0F820A065
:101B8000858BD1F808A0BAF1020F01D100BF82E025
:101B9000B1F804A0BAF1000F02D14FF0010901E041
:101BA0004FF00209DFF8E0A2DAF800A00AF4000A18
:101BB000BAF1000F09D0DFF8D0A2DAF800A02AF4B9
:101BC000000ADFF8C4B2CBF800A0DFF8BCA20AF12B
:101BD0007C0ADAF800A0CAF3881CDFF8ACA20AF18C
:101BE0007C0ADAF800A0CAF30278DFF89CA2AAF116
:101BF000040ADAF800A00AF03F07DFF88CA2AAF185
:101C0000040ADAF800A00AF4800ABAF5800F08D1B5
:101C1000DFF878A2BAFBF7FA0AFB0CFABAFBF8F67F
:101C200007E0DFF86CA2BAFBF7FA0AFB0CFABAFB82
:101C3000F8F6B1F806A0BAF5007F0ED14FEA162AE1
:101C40000AEB8A0A4FEA4A0AD1F808B0BAFBFBFA53
:101C50000AF1050A1FFA8AF20FE04FEA491AB6FBA9
:101C6000FAFA0AEB8A0A4FEA4A0AD1F808B0BAFB34
:101C7000FBFA0AF1050A1FFA8AF24FF00A0AB2FBD0
:101C8000FAF202F00104A2EB040ACAF34F034FF682
:101C9000FF7A0AEA0424022B01DBFF2B01DD022379
:101CA0000024B1F806A04AEA040A4AEA030AA0F8A6
:101CB00020A0B1F804A0B1F80CB04AEA0B0AB1F8C0
:101CC00002B04AEA0B0AB1F800B04AEA0B0A4AF439
:101CD000006A4AEA05058583BDE8F08F002101808E
:101CE00041808180C180018141818181C181072141
:101CF000018270470021018041808180C1800221E2
:101D0000816000218181704721B1028842F0400248
:101D1000028004E002884FF6BF731A4002807047C9
:101D200021B1828B42F48062828304E0828B4FF681
:101D3000FF331A408283704702884FF2FF731A40C4
:101D4000028002880A4302807047B1F5804F04D1B7
:101D5000028842F48042028004E002884BF6FF735E
:101D60001A40028070474FF6FF62914204D0028809
:101D700042F48072028004E002884FF6FF631A404A
:101D80000280704721B1828842F00402828004E020
:101D900082884FF6FB731A408280704721B1828897
:101DA00042F01002828004E082884FF6EF731A40FE
:101DB0008280704730B500220023848B4FF24005AB
:101DC0002C40848302240484828B0C88B4F5007F29
:101DD00001D00C8814B94FF4807308E00C88B4F576
:101DE000407F03D00C88B4F5807F00D100238C881D
:101DF0008D892C434D882C431C4344F400642243BA
:101E0000828330BD0146888970478181704721B146
:101E1000028842F40052028004E002884DF6FF730B
:101E20001A4002807047018841F480510180704758
:101E300002460020012901D0108B00E0908A7047F3
:101E40000146088A70471AB183880B43838002E0F9
:101E500083888B438380704730B5002400230C11A6
:101E60000125A540ABB2AAB185881D43858014E049
:101E70000030014000380040003C00400034014088
:101E800000500140005401400838024000127A001E
:101E90000024F40085889D43858030BD02460020E3
:101EA00013890B400BB1012000E000207047CA43AA
:101EB00002817047F0B5024600200024002300256F
:101EC00001F00F070126BE40B4B20B1101269E405F
:101ED000B3B2968806EA03051689264016B10DB1FD
:101EE000012000E00020F0BD10B5002201F00F0439
:101EF0000123A3409AB2D343038110BD10B5044619
:101F0000FE48844208D101210846FFF712FD002156
:101F10000120FFF70EFD9DE0B4F1804F08D10121B3
:101F20000846FFF7F5FC00210120FFF7F1FC91E0E6
:101F3000F348844208D101210220FFF7E9FC002187
:101F40000220FFF7E5FC85E0EE48844208D101213C
:101F50000420FFF7DDFC00210420FFF7D9FC79E025
:101F6000E948844208D101210820FFF7D1FC002173
:101F70000820FFF7CDFC6DE0E448844208D1012140
:101F80001020FFF7C5FC00211020FFF7C1FC61E025
:101F9000DF48844208D101212020FFF7B9FC00214D
:101FA0002020FFF7B5FC55E0DA48844208D1012132
:101FB0000220FFF7BEFC00210220FFF7BAFC49E037
:101FC000D548844209D101210804FFF7B2FC002161
:101FD0004FF48030FFF7ADFC3CE0D048844209D19B
:101FE00001214804FFF7A5FC00214FF40030FFF762
:101FF000A0FC2FE0CA48844209D101218804FFF7E0
:1020000098FC00214FF48020FFF793FC22E0C548A4
:10201000844208D101214020FFF77AFC00214020B2
:10202000FFF776FC16E0C048844208D101218020E9
:10203000FFF76EFC00218020FFF76AFC0AE0BB4836
:10204000844207D101218015FFF762FC0021A01511
:10205000FFF75EFC10BD00220288A84B98420ED00C
:10206000AC4B98420BD0B0F1804F08D0A44B9842B3
:1020700005D0A44B984202D0A34B984204D14FF60E
:102080008F731A404B881A43A04B984207D0A04B3D
:10209000984204D04FF6FF431A400B891A4302803E
:1020A0004B68C3620B880385944B984202D0994BCE
:1020B000984201D18B7A03860123838270474FF0C7
:1020C000FF314160002101800181418081727047B0
:1020D0000185828270470A46002101884FF68F737E
:1020E000194011430180704741627047C1627047D7
:1020F0000146486A70470146088D704721B1028841
:1021000042F00202028004E002884FF6FD731A409A
:102110000280704721B1028842F00402028004E08C
:1021200002884FF6FB731A400280704721B1028883
:1021300042F08002028004E002884FF67F731A406A
:102140000280704702884FF6F7731A4002800288B7
:102150000A430280704702884FF6FF431A4002800C
:1021600002880A430280704721B1028842F00102CE
:10217000028004E002884FF6FE731A400280704726
:1021800070B5002400220023058C4FF6FE76354002
:102190000584028C8388048B4FF68F752C40B51E06
:1021A0002C400D882C43751E2A408D892A434D886A
:1021B0002A43524DA84202D0564DA84213D14FF6A1
:1021C000F7752A40CD892A434FF6FB752A408D8842
:1021D0002A434FF6FF652B404FF6FF552B400D8AE3
:1021E0002B434D8A2B43838004838D68456302848F
:1021F00070BD70B5002400220023058C4FF6EF76E9
:1022000035400584028C8388048B48F6FF752C408A
:102210004FF6FF452C400D884FF6FF7606EA052560
:102220002C434FF6DF752A408D8906EA05152A43AF
:102230004D8806EA05152A43304DA84202D0354D97
:10224000A8421DD14FF67F752A40CD894FF6FF7603
:1022500006EA05152A434FF6BF752A408D8806EA1F
:1022600005152A434FF6FF352B404FF2FF752B40E3
:102270000D8A06EA85052B434D8A06EA85052B4320
:10228000838004838D688563028470BD70B50024EB
:1022900000220023058C4FF6FF6635400584028C32
:1022A0008388848B4FF68F752C404FF6FC752C403D
:1022B0000D882C434FF6FF552A408D894FF6FF7647
:1022C00006EA05252A434D8806EA05252A430B4DD3
:1022D000A84202D00F4DA84238D14FF2FF752A40D4
:1022E000CD894FF6FF7606EA05252A434FF6FF35DE
:1022F0002A408D8806EA05252A4319E0000001409E
:102300000004004000080040000C004000100040A5
:10231000001400400004014000400140004401401E
:102320000048014000180040001C00400020004010
:102330004EF6FF752B404DF6FF752B400D8A06EAD1
:1023400005152B434D8A06EA05152B4383808483AC
:102350008D68C563028470BD70B50022002300241F
:10236000058C4EF6FF7635400584038C8488828B7D
:1023700048F6FF752A404FF6FF452A400D884FF674
:10238000FF7606EA05252A434DF6FF752B408D8919
:1023900006EA05352B434D8806EA05352B43FE4DED
:1023A000A84202D0FD4DA84208D14BF6FF752C4043
:1023B0000D8A4FF6FF7606EA85152C4384808283CA
:1023C0008D680564038470BD002101804180818097
:1023D00081608181C18101824182704770B503466D
:1023E000002000241846183001258D40ACB21D8C09
:1023F000A5431D8409B108290AD100EB61000568D5
:102400004FF68F76354005600568154305600FE08F
:102410000D1FC5F34E052844056848F6FF76354084
:10242000056005684FF6FF7606EA0226354305602B
:1024300070BD4163704781637047C1637047016439
:1024400070470A460021018B4FF68F7319401143E4
:10245000018370470A460021018B48F6FF7319403B
:102460004FF6FF7303EA02231943018370470A46BC
:102470000021818B4FF68F73194011438183704780
:102480000A460021818B48F6FF7319404FF6FF730F
:1024900003EA02231943818370470A460021018B16
:1024A0004FF6F77319401143018370470A46002124
:1024B000018B4FF2FF7319404FF6FF7303EA0223BB
:1024C0001943018370470A460021818B4FF6F77349
:1024D00019401143818370470A460021818B4FF2D6
:1024E000FF7319404FF6FF7303EA022319438183F8
:1024F00070470A460021018B4FF6FB7319401143C8
:10250000018370470A460021018B4FF6FF331940C3
:102510004FF6FF7303EA02231943018370470A460B
:102520000021818B4FF6FB73194011438183704763
:102530000A460021818B4FF6FF3319404FF6FF7397
:1025400003EA02231943818370470A460021018B65
:102550004FF67F7319401143018370470A460021EB
:10256000018BC1F30E014FF6FF7303EA02231943F7
:10257000018370470A460021818B4FF67F73194013
:102580001143818370470A460021818BC1F30E01FC
:102590004FF6FF7303EA02231943818370470A460B
:1025A0000021018C4FF6FD731940114301847047DF
:1025B0000A460021018C4FF6F7731940114301843C
:1025C00070470A460021018C4FF6DF7319404FF621
:1025D000FF7303EA02131943018470470A4600217E
:1025E000018C4FF67F7319404FF6FF7303EA021315
:1025F0001943018470470A460021018C4FF6FF53AE
:1026000019404FF6FF7303EA022319430184704710
:102610000A460021018C4FF2FF7319404FF6FF73F9
:1026200003EA02231943018470470A460021018C02
:102630004DF6FF7319404FF6FF7303EA0233194357
:102640000184704730B5002301248C40A3B2048C70
:102650009C430484048C02FA01F5ADB22C4304843B
:1026600030BD30B5002304248C40A3B2048C9C43BD
:102670000484048C02FA01F5ADB22C43048430BD0D
:10268000828B4FF2FF331A408283828B4FF6FF73A7
:1026900003EA01231A4382837047F0B50C461546BE
:1026A000002100220026078C4EF6FF7C07EA0C076B
:1026B0000784818B028C4FF6FF7707EA043640F6D9
:1026C000FF4739404FF6FF7707EA052739434FF6B2
:1026D000FF7707EA0337394345F6FF773A4046F478
:1026E00080573A4381830284F0BD828B4FF6F373A7
:1026F0001A408283828B0A4382837047F0B50C466E
:102700001546002100220026078C4FF6FF6C07EAD1
:102710000C070784818B028C4FF6FF7707EA0426AB
:102720004FF60C7739404FF6FF7707EA03172F4330
:1027300039434FF2FF573A4046F480773A4381835A
:102740000284F0BD028B4FF2FF331A400283028BEA
:102750004FF6FF7303EA01231A4302837047F0B573
:102760000C461546002100220026078C4FF6EF7C10
:1027700007EA0C070784018B028C4FF6FF7707EA04
:10278000041640F6FF4739404FF6FF7707EA033754
:1027900039434FF6FF7703E0000001400004014099
:1027A00007EA052739434FF65F773A4046F01007AE
:1027B0003A4301830284F0BD028B4FF6F3731A4053
:1027C0000283028B0A4302837047F0B50C4615461C
:1027D00000210022068C4FF6FE773E400684018BD6
:1027E000028C4FF60C7631407E1C06EA03162E430F
:1027F00031434FF6F576324044F00106324301830F
:102800000284F0BD70B505460C46208850B9238976
:10281000A28861882846FFF7D8FFE1882846FFF79D
:10282000CBFF25E0208804280AD12389A28861886B
:102830002846FFF794FFE1882846FFF783FF17E05B
:10284000208808280AD12389A28861882846FFF7B2
:1028500055FFE1882846FFF748FF09E02389A28851
:1028600061882846FFF719FFE1882846FFF708FF2F
:1028700070BD002101804180012181800021C18043
:10288000018170472DE9F04105460C4600260127DD
:10289000608808B9022600E00026A088012801D13E
:1028A000022700E001272088A0B92389A288618837
:1028B0002846FFF78AFFE1882846FFF77DFF238936
:1028C0003A4631462846FFF74AFFE1882846FFF797
:1028D00039FF13E02389A28861882846FFF73FFF6C
:1028E000E1882846FFF72EFF23893A4631462846DD
:1028F000FFF76BFFE1882846FFF75EFFBDE8F08138
:102900000146486B70470146886B70470146C86BAB
:1029100070470146086C70470A884B881A438B88B9
:102920001A43CB881A430B891A434B891A438B8964
:102930001A43A0F844207047002101804180818023
:10294000C180018141818181704731B1B0F844205B
:1029500042F40042A0F8442005E0B0F84420C2F35D
:102960000E02A0F84420704721B1828842F0040290
:10297000828004E082884FF6FB731A4082807047A1
:1029800021B1828842F00102828004E082884FF601
:10299000FE731A40828070471AB183890B4383818A
:1029A00002E083898B4383817047818270470246AE
:1029B0000020138A0B400BB1012000E0002070477B
:1029C000CA430282704730B502460020002300242B
:1029D000158A05EA0103958905EA010413B10CB1D2
:1029E000012000E0002030BDCA430282704741EA66
:1029F0000203A0F8483070471AB183890B438381E2
:102A000002E083898B438381704721B1828842F041
:102A10000802828004E082884FF6F7731A408280B1
:102A2000704701894FF6F8721140018170470A46DC
:102A3000002101894FF68F731940114301817047BE
:102A400030B504460D4629462046FFF7F0FF2089A1
:102A500040F00700208130BD2DE9F04104460D46CD
:102A600016461F46602D06D13B46012231462046C0
:102A7000FFF775FE05E03B46012231462046FFF791
:102A8000A4FE29462046FFF7D2FF208940F0070028
:102A90002081BDE8F08130B50C4600210189C9B222
:102AA0004FF6FF7505EA03251543254329430181A8
:102AB00030BD2DE9F04105460E46174698460024E4
:102AC00043463A4631462846FFF7E5FF2C894FF644
:102AD000F870044044F007044FF68F70044044F04F
:102AE00070042C81BDE8F081F0B504460D46164611
:102AF0001F463B46324629462046FFF7CCFF208939
:102B000040F480402081F0BD82884FF68F731A40D8
:102B1000828082880A438280704702894FF6F87368
:102B20001A40028102890A430281704702894FF6E6
:102B30007F731A40028102890A4302817047F0B50F
:102B40000C4615461E460021002200230189028BF7
:102B5000038C4FF6F877394021434FF6FC473A4053
:102B600040F201173A434FF6DD773B404FF6FF77CF
:102B700007EA06172F433B43018102830384F0BD1C
:102B800021B1828842F08002828004E082884FF680
:102B90007F731A4082807047A0F850107047000081
:102BA00010B50446FA48844208D101211020FEF7EE
:102BB000C0FE00211020FEF7BCFE57E0F54884421D
:102BC00009D101214804FEF7A3FE00214FF4003093
:102BD000FEF79EFE4AE0F048844209D101218804B4
:102BE000FEF796FE00214FF48020FEF791FE3DE0B7
:102BF000EA48844209D10121C804FEF789FE002178
:102C00004FF40020FEF784FE30E0E548844209D10D
:102C100001210805FEF77CFE00214FF48010FEF72D
:102C200077FE23E0DF48844208D101212020FEF70F
:102C300080FE00212020FEF77CFE17E0DA48844267
:102C400009D101218807FEF763FE00214FF0804083
:102C5000FEF75EFE0AE0D548844207D10121400517
:102C6000FEF756FE00216005FEF752FE10BD2DE96D
:102C7000FF4705460E460024A14600BFA046B08986
:102C800000B100BF2C8A24F44054F08804432C8205
:102C9000AC8941F20C608443B08831890843718962
:102CA00008430443AC81AC8A24F44074B0890443E3
:102CB000AC826846FEF7BDFCB548854202D0B948F3
:102CC000854202D1DDF80C9001E0DDF80890A8897A
:102CD00000F4004040B109EBC90000EB0910316875
:102CE0004900B0FBF1F707E009EBC90000EB091060
:102CF00031688900B0FBF1F76420B7FBF0F0040104
:102D00002009642101FB1078A88900F4004040B13B
:102D1000322000EBC800B0FBF1F000F007000443E4
:102D200008E0322000EB08106421B0FBF1F000F065
:102D30000F0004432C81BDE8FF874FF4165101605A
:102D400000218180C18001810C214181002181818C
:102D5000704710B502460020108A20F470600B887E
:102D60004C8823438C882343CC8823431843108208
:102D700010BD0021018041808180C180704721B158
:102D8000828942F40052828104E082894DF6FF7309
:102D90001A4082817047028B02F47F420283028BC9
:102DA0000A430283704721B1828942F40042828142
:102DB00003E08289C2F30E028281704721B1828AC8
:102DC00042F40062828204E0828A4FF2FF731A406A
:102DD00082827047C1F3080282807047014688886A
:102DE000C0F308007047028A4FF6F0731A4002825F
:102DF000028A0A430282704721B1828942F00202AC
:102E0000828104E082894FF6FD731A408281704707
:102E100082894FF2FF731A40828182890A4382813C
:102E20007047028A4FF6DF731A400282028A0A4311
:102E30000282704721B1028A42F48042028204E099
:102E4000028A4BF6FF731A4002827047818941F073
:102E500001018181704721B1828A42F00802828299
:102E600004E0828A4FF6F7731A4082827047028B21
:102E7000D2B20283028B42EA01220283704721B15F
:102E8000828A42F02002828204E0828A4FF6DF7357
:102E90001A408282704721B1828A42F010028282F7
:102EA00004E0828A4FF6EF731A4082827047828A6A
:102EB0004FF6FB731A408282828A0A4382827047ED
:102EC00021B1828A42F00202828204E0828A4FF6B5
:102ED000FD731A40828270471AB1838A0B43838242
:102EE00002E0838A8B4383827047F0B50346002457
:102EF00000260025002040F66A17B94200D100BF25
:102F00001846C1F3421401F01F06012707FA06F51F
:102F1000012C01D10C3004E0022C01D1103000E072
:102F200014301AB107682F43076002E00768AF4307
:102F30000760F0BD02460020B1F5007F00D100BF60
:102F400013880B400BB1012000E00020704701F412
:102F50000072B2F5007F00D100BFCA430280704703
:102F600070B50246002400230025002040F66A16B2
:102F7000B14200D100BFC1F3421501F01F03012689
:102F800006FA03F3012D13D19689334017E00000B0
:102F9000001001400044004000480040004C004048
:102FA000005000400014014000780040007C0040C8
:102FB000022D02D1168A334001E0968A33400C126A
:102FC000012606FA04F41688344013B10CB101202E
:102FD00000E0002070BD10B50022002340F66A1406
:102FE000A14200D100BF0A1201249440A3B2DC43E5
:102FF000048010BD0160684A91420FD1674A426166
:103000004A1502830A15428325220277644A026226
:103010004FF0006242625211826211E0614A9142B5
:103020000ED1614A4261202202834022428326223D
:1030300002775E4A02624FF000624262921182623F
:103040004FF4E13242600023038143818381038294
:103050000C23C38170473EB50446504960698842DD
:1030600003D101210846FEF7B5FB4F49606988424C
:1030700003D101210820FEF7ADFB474920688842B3
:1030800003D101211020FEF7FFFB4649206888424A
:1030900003D101214804FEF7E6FB3F49206888423E
:1030A0000AD1072209216069FEF781F907220A2166
:1030B0006069FEF77CF90DE03A492068884209D141
:1030C000072205216069FEF772F90722062160696F
:1030D000FEF76DF9208B618B0843019002208DF87B
:1030E00008008DF8090000208DF80A0001208DF8F5
:1030F0000B0001A96069FEF7CFF8211D2068FFF7DA
:10310000B6FD012240F224412068FFF7EEFE207F49
:103110008DF8000006208DF8010000208DF80200D7
:1031200001208DF803006846FDF7F1FD01212068BC
:10313000FFF725FE3EBD10B590B004460121A06A00
:10314000FEF748FB208E0590E06A0390606A0190CC
:10315000002004900A902068001D02900020099031
:1031600008904FF480600790002006904FF40030E4
:103170000B9000200C900E900F9001A9206AFDF793
:10318000D3FE012240212068FFF7A6FE0121206A1C
:10319000FDF704FF10B010BD001001400000024018
:1031A0004064024000440040000C0240886002403D
:1031B0000EB501210420FEF756FB0020ADF80800F3
:1031C000ADF802005320ADF800004FF6FF700190FB
:1031D00069463348FEF73FFF01213148FEF7C4FF3F
:1031E0000EBD10B503F051F9012801D000F09EF991
:1031F00001203CF07BFF10BD294A2432126891B2B5
:1032000000BF274A24321268521A92B28242F8D37F
:10321000704770B504464FF47A7060434FF47A718A
:10322000B0FBF1F5284602F026FA70BD1FB501216A
:103230000220FEF718FB312002905320ADF8040065
:103240000020ADF80C00ADF8060001A91548FEF706
:1032500002FF012211461348FFF79EFB1D208DF847
:10326000000001208DF801008DF802008DF80300A8
:103270006846FDF74CFD01210A48FEF775FF1FBDAA
:1032800010B501210748FFF79EFB40B106480068D2
:10329000401C0549086001210248FFF7A5FB10BD4D
:1032A000000800400004004040010020C6480068BB
:1032B000401C08B9012000E0002050B900BF502098
:1032C00080F31188BFF34F8FBFF36F8F00BF00BF34
:1032D000FEE700BF502080F31188BFF34F8FBFF38C
:1032E0006F8F00BF00BFFEE7001F4FF080730360C9
:1032F000001F21F001030360001FB44B036014386A
:103300000260001F6FF00203036020387047002046
:103310004FF0E02108618861AD4800684FF47A7190
:10332000B0FBF1F0401E4FF0E0214861072008613A
:1033300070471CB5A7480068A749884201D0012002
:1033400000E0002050B900BF502080F31188BFF387
:103350004F8FBFF36F8F00BF00BFFEE79D4800682F
:103360009D49491E884201D0012000E0002050B94B
:1033700000BF502080F31188BFF34F8FBFF36F8FD2
:1033800000BF00BFFEE79549084600780190FF2086
:103390000A4610700846007800909DF8000000F082
:1033A000F0009DF80020904201D1012000E00020B3
:1033B00050B900BF502080F31188BFF34F8FBFF387
:1033C0006F8F00BF00BFFEE79DF8000000F05000C7
:1033D000834A10700720834A106009E08148006822
:1033E000401E804A10609DF800004006000E0090CC
:1033F0009DF8000000F080008028EFD07948006838
:10340000C0F10700042801D1012000E0002050B9DC
:1034100000BF502080F31188BFF34F8FBFF36F8F31
:1034200000BF00BFFEE76F48006800026D4A1060F1
:103430001046008800F4E0601060684A019810703F
:1034400064482030006840F4700062492031086010
:103450000846006840F070400860FFF758FF002001
:1034600059490860FCF7BEFE5F48006840F04040E4
:103470005D490860FCF7A2FE00201CBD52480068B0
:10348000B0F57A7F01D1012000E0002050B900BFE3
:10349000502080F31188BFF34F8FBFF36F8F00BFB1
:1034A00000BFFEE7704700BF502080F31188BFF3D4
:1034B0004F8FBFF36F8F00BF43480068401C4249E5
:1034C000086008460068012813D14248001D0068C2
:1034D000C0B208B9012000E0002050B900BF502060
:1034E00080F31188BFF34F8FBFF36F8F00BF00BF12
:1034F000FEE770473448006850B900BF502080F3A1
:103500001188BFF34F8FBFF36F8F00BF00BFFEE77F
:103510002D480068401E2C4908600846006820B904
:10352000002080F3118800BF00BF704710B500BFB6
:10353000502080F31188BFF34F8FBFF36F8F00BF10
:1035400001F043FE20B14FF080502249091D086070
:1035500000BF002080F3118800BF10BD70B5FCF7DC
:1035600079FE0446102C16D304F1E02090F8F053B5
:103570001B480078854201DB012000E0002050B9A3
:1035800000BF502080F31188BFF34F8FBFF36F8FC0
:1035900000BF00BFFEE70F480C30006800F4E06099
:1035A00010490968884201D8012000E0002050B984
:1035B00000BF502080F31188BFF34F8FBFF36F8F90
:1035C00000BF00BFFEE770BD44010020AD3200081F
:1035D0001C01002000ED00E071C20F4100E400E09A
:1035E000480100204C01002034EF00E010B50146F6
:1035F000C64800E0006803688B42FBD3024643687C
:1036000013448B4204D143684C6823444360014611
:103610000A464B6813440468A34211D1BC4C0368AA
:103620002468A34208D04B680468646823444B6054
:1036300003681B680B6005E0B54B1B680B6001E07D
:1036400003680B60884200D0016010BD30B54FF4B4
:103650000C43B04800F007042CB1C01D20F0070057
:10366000AC4C041B1B1B0246A84C22600024A74D37
:103670006C60D018083820F00700A54C20600024AA
:10368000A34D2D686C60A24D2D682C601146441A24
:103690004C609F4C24680C609F4D4C682C609F4D83
:1036A0004C682C604FF000449D4D2C6030BD2DE9DE
:1036B000F04104464FF0000801F072FF94480068A2
:1036C00008B9FFF7C3FF96480068204000287DD165
:1036D0003CB304F10800A04223D9083404F00700E9
:1036E00000B304F00700C0F108002044A04216D93E
:1036F00004F00700C0F10800044404F0070008B912
:10370000012000E0002068B900BF502080F311883C
:10371000BFF34F8FBFF36F8F00BF00BFFEE70024E2
:1037200000E00024002C54D07C480068844250D82B
:10373000764E3046056801E02E462D686868A04246
:1037400002D228680028F7D171480068854240D02D
:10375000306800F10808286830606868001B10288D
:1037600019D92F1907F0070008B9012000E000203F
:1037700050B900BF502080F31188BFF34F8FBFF3C3
:103780006F8F00BF00BFFEE76868001B78606C6049
:103790003846FFF72BFF614968680968081A5F49D6
:1037A0000860084600685C490968884203D25B48A3
:1037B0000068594908605A496868096808436860A0
:1037C0000020286057480068401C00E001E055498F
:1037D000086001F0EAFD08F0070008B9012000E0E8
:1037E000002050B900BF502080F31188BFF34F8FE5
:1037F000BFF36F8F00BF00BFFEE74046BDE8F0811A
:1038000070B506463546002E44D0083D2C46444946
:1038100060680968084008B1012000E0002050B944
:1038200000BF502080F31188BFF34F8FBFF36F8F1D
:1038300000BF00BFFEE7206808B9012000E00020BB
:1038400050B900BF502080F31188BFF34F8FBFF3F2
:103850006F8F00BF00BFFEE731496068096808400C
:10386000C0B12068B0B92E496068096888436060BB
:1038700001F096FE294960680968084427490860F4
:103880002046FFF7B3FE28480068401C2649086020
:1038900001F08BFD70BD2148006870471E4800682C
:1038A000704770472DE9F04104464FF000080026AC
:1038B000771E01F075FE154805687DB100BF08F15F
:1038C00001086868B04200D96E686868B84200D2E2
:1038D0006F682D680E4800688542F0D101F065FDE3
:1038E0006660A760C4F80C80FFF7DDFD0B48006838
:1038F00020600C48006860610B480068A0610648C1
:1039000000682061FFF7F6FDBDE8F081500100205E
:10391000580100207C040020600100205C01002090
:103920006C010020640100206801002010B51C20FB
:10393000FFF7BDFE044624B100202060201D00F0EA
:103940003BFA204610BD2DE9FE4F07468846002071
:1039500001903C46009057B900BF502080F3118879
:10396000BFF34F8FBFF36F8F00BF00BFFEE708F0BC
:103970007F4008B9012000E0002050B900BF50206E
:1039800080F31188BFF34F8FBFF36F8F00BF00BF6D
:10399000FEE704F1040909F10800029001F000FEBD
:1039A000D9F80C60206840EA0800206026E0D6F8CC
:1039B00004B035680020009005F07F4A25F07F456F
:1039C0000AF0806028B92068284040B101200090AA
:1039D00005E020682840A84201D10120009000980D
:1039E00058B10AF0807010B1019828430190206806
:1039F00040F00071304602F02AFC5E460298864292
:103A0000D5D1206801998843206001F0CEFC206860
:103A1000BDE8FE8F2DE9F84F8346884614461F46C1
:103A20005D460020009004F07F4008B9012000E0CE
:103A3000002050B900BF502080F31188BFF34F8F92
:103A4000BFF36F8F00BF00BFFEE70CB1012000E0A5
:103A5000002050B900BF502080F31188BFF34F8F72
:103A6000BFF36F8F00BF00BFFEE702F00EFD00B98D
:103A70000FB9012000E0002050B900BF502080F3B2
:103A80001188BFF34F8FBFF36F8F00BF00BFFEE7FA
:103A900001F086FDD5F8009041465846FFF753FFE8
:103AA00049EA08002040A04206D149EA08062868F1
:103AB000A043286000270BE03FB144F0A0613A46E4
:103AC000281D02F0CEFA002602E02E6801200090A8
:103AD00001F06BFC824607B3BAF1000F07D14FF03B
:103AE0008050B4490860BFF34F8FBFF36F8F02F06F
:103AF0001CFF064606F0007068B9FFF7D4FC2E687C
:103B000006EA0400A04202D12868A0432860FFF71B
:103B1000F1FC0120009026F07F463046BDE8F88F8A
:103B200010B50346002022B903EA010434B1012094
:103B300004E003EA01048C4200D1012010BD2DE90C
:103B4000FF4F83B081460D461746DDF840804C4656
:103B50004FF0000A00200190B9F1000F0AD100BF18
:103B6000502080F31188BFF34F8FBFF36F8F00BFDA
:103B700000BFFEE705F07F4008B9012000E000200B
:103B800050B900BF502080F31188BFF34F8FBFF3AF
:103B90006F8F00BF00BFFEE70DB1012000E00020E5
:103BA00050B900BF502080F31188BFF34F8FBFF38F
:103BB0006F8F00BF00BFFEE702F067FC10B9B8F1DD
:103BC000000F01D1012000E0002050B900BF5020BB
:103BD00080F31188BFF34F8FBFF36F8F00BF00BF1B
:103BE000FEE701F0DDFC206800902946069A009867
:103BF000FFF796FF0290029838B1009E4FF0000840
:103C0000C7B12068A843206014E0B8F1000F03D1C9
:103C1000009E012001900DE00FB14AF0807A0698D5
:103C200008B14AF0806A45EA0A014246201D02F0C6
:103C300018FA002601F0B9FB8346B8F1000F23D033
:103C4000BBF1000F07D14FF080505A490860BFF315
:103C50004F8FBFF36F8F02F068FE064606F00070CC
:103C600080B9FFF720FC266829463046069AFFF700
:103C700057FF18B117B12068A843206001200190B8
:103C8000FFF738FC26F07F46304607B0BDE8F08FDE
:103C90002DE9F04105460E462C4655B900BF50208F
:103CA00080F31188BFF34F8FBFF36F8F00BF00BF4A
:103CB000FEE706F07F4008B9012000E0002050B97F
:103CC00000BF502080F31188BFF34F8FBFF36F8F79
:103CD00000BF00BFFEE7FFF7E6FB27682068B043A0
:103CE0002060FFF707FC3846BDE8F08170B501465B
:103CF0000B4600BF5025EFF3118085F31188BFF309
:103D00004F8FBFF36F8F00BF02461C68104680F3D1
:103D1000118800BF204670BD70B505462E4656B9C5
:103D200000BF502080F31188BFF34F8FBFF36F8F18
:103D300000BF00BFFEE7341D01F032FC18E004F1C3
:103D40000800E168814201D0012000E0002050B964
:103D500000BF502080F31188BFF34F8FBFF36F8FE8
:103D600000BF00BFFEE74FF00071E06802F06FFA9D
:103D700020680028E3D13046FFF742FD01F015FB33
:103D800070BD70B504460D4629462046FFF7DBFDA1
:103D900070BD70B504460D4629462046FFF778FFF2
:103DA00070BD01460A4609B9002000E090697047DD
:103DB0008161704704ED00E000F1080141604FF0BF
:103DC000FF31816000F10801C160016100210160E3
:103DD000704700210161704742684A6093688B60B8
:103DE000936859609160086103685B1C03607047C9
:103DF00010B502460B685C1C0CB9106907E002F1B3
:103E0000080000E04068446824689C42FAD944688D
:103E10004C604C68A160886041600A611468641C51
:103E2000146010BD01460A69D1E901309860D1E9FA
:103E3000010358605068884201D1886850600020B2
:103E400008611068401E1060106870472DE9F0414D
:103E500005460E4601272C4654B900BF502080F37A
:103E60001188BFF34F8FBFF36F8F00BF00BFFEE716
:103E7000002C42D0E06B00283FD04FF0FF31E06BC8
:103E8000B1FBF0F0216C884237D3FFF70CFBD4E98B
:103E90000F12206801FB0200A0600020A0632068D0
:103EA0006060E06B401E226C216800FB0211E16043
:103EB000FF2084F8440084F845009EB9206908B9C1
:103EC000012000E00020A8B904F1100002F03BF945
:103ED00080B14FF08050F6490860BFF34F8FBFF3B9
:103EE0006F8F07E004F11000FFF766FF04F1240074
:103EF000FFF762FFFFF7FEFA00E000270FB1012095
:103F000000E0002050B900BF502080F31188BFF3BB
:103F10004F8FBFF36F8F00BF00BFFEE73846BDE88D
:103F2000F0812DE9F04106460D4617469846069C5D
:103F30000DB9246000E02760E66325640121204676
:103F4000FFF784FF84F84C80BDE8F0812DE9F84349
:103F500005460E4617460024E5B1601EB0FBF5F09D
:103F6000B04217D305FB06F010F1510F12D805FB34
:103F700006F808F15000FFF79AFB0446B4B1A146D9
:103F800009F150093B464A46314628460094FFF75E
:103F9000C8FF0BE054B900BF502080F31188BFF375
:103FA0004F8FBFF36F8F00BF00BFFEE72046BDE815
:103FB000F88370B50446FFF776FA94F9455010E09F
:103FC000606A08B9012000E0002038B904F124003B
:103FD00002F0B9F818B102F035FA00E003E0681E0B
:103FE00045B2002DECDC00BFFF2084F84500FFF750
:103FF00081FAFFF758FA94F9445010E0206908B9A3
:10400000012000E0002048B904F1100002F09BF804
:1040100008B102F017FA681E45B200E001E0002D79
:10402000ECDC00BFFF2084F84400FFF763FA70BDAA
:1040300070B50546FFF737FAA86BE96B884201D1E6
:10404000012400E00024FFF755FA204670BD2DE959
:10405000F04104460F4615464FF00008A66B206C51
:1040600048B9206800282CD1A06802F08AFA80465E
:104070000020A06025E07DB93946226C60683DF0E3
:10408000C6FA216C606808446060D4E90101884286
:1040900017D32068606014E03946226CE0683DF078
:1040A000B6FA216CE068411AE1602168E068884254
:1040B00003D2216CA068411AE160022D01D106B142
:1040C000761E701CA0634046BDE8F0812DE9FF43D9
:1040D00083B0064688461D464FF00009344654B961
:1040E00000BF502080F31188BFF34F8FBFF36F8F55
:1040F00000BF00BFFEE7B8F1000F01D1206C08B986
:10410000012000E0002050B900BF502080F311884A
:10411000BFF34F8FBFF36F8F00BF00BFFEE7022DCD
:1041200002D1E06B012801D1012000E0002050B94C
:1041300000BF502080F31188BFF34F8FBFF36F8F04
:1041400000BF00BFFEE702F0A0F908B9059808B962
:10415000012000E0002050B900BF502080F31188FA
:10416000BFF34F8FBFF36F8F00BF00BFFEE700BFED
:10417000FFF799F9A06BE16B884201D3022D28D19A
:104180002A4641462046FFF762FF0746606A08B9A3
:10419000012000E0002068B904F1240001F0D3FF01
:1041A00088B14FF0805042490860BFF34F8FBFF392
:1041B0006F8F08E03FB14FF080503D490860BFF37A
:1041C0004F8FBFF36F8FFFF795F9012007B0BDE860
:1041D000F083059818B9FFF78DF90020F6E7B9F1DB
:1041E000000F04D101A802F0E2F84FF00109FFF737
:1041F00081F901F0D5F9FFF756F994F94400401C14
:1042000010B9002084F8440094F94500401C10B90E
:10421000002084F84500FFF76DF905A901A802F018
:10422000CDF8F0B92046FFF703FFA0B104F110006C
:10423000059901F0FCFE2046FFF7BBFE01F0B5F842
:10424000002895D14FF0805019490860BFF34F8F77
:10425000BFF36F8F8CE72046FFF7ABFE01F0A5F8A8
:1042600086E72046FFF7A5FE01F09FF80020ADE7A6
:1042700010B5044654B10020A06020600021E16028
:1042800000231A4619462046FFF720FF10BD2DE9EE
:10429000F041044601260027224600210120FFF7B5
:1042A00055FE05462846FFF7E3FF2846BDE8F081A6
:1042B00004ED00E070B505462C4654B900BF50200F
:1042C00080F31188BFF34F8FBFF36F8F00BF00BF24
:1042D000FEE702F0D7F8A16888420CD1E068401EE2
:1042E000E060E06828B900231A4619462046FFF727
:1042F000EDFE012600E00026304670BD01464A6A08
:1043000022B10A6B1268C2F10A0000E00020704777
:1043100070B50546FFF7C7F8A86B08B9012400E09F
:104320000024FFF7E7F8204670BD2DE9F34182B085
:1043300005464FF000082C46002654B900BF502017
:1043400080F31188BFF34F8FBFF36F8F00BF00BFA3
:10435000FEE7206C08B9012000E0002050B900BF42
:10436000502080F31188BFF34F8FBFF36F8F00BFD2
:1043700000BFFEE702F089F808B9039808B90120E8
:1043800000E0002050B900BF502080F31188BFF337
:104390004F8FBFF36F8F00BF00BFFEE700BFFFF777
:1043A00082F8A76BFFB1781EA063206810B902F0F5
:1043B000C8FAA060206908B9012000E0002060B9B7
:1043C00004F1100001F0BFFE38B14FF08050F94900
:1043D0000860BFF34F8FBFF36F8FFFF78BF801209B
:1043E00004B0BDE8F081039898B90EB9012000E04F
:1043F000002050B900BF502080F31188BFF34F8FC9
:10440000BFF36F8F00BF00BFFEE7FFF773F8002018
:10441000E6E7B8F1000F04D1684601F0C8FF4FF09D
:104420000108FFF767F801F0BBF8FFF73CF894F9D3
:104430004400401C10B9002084F8440094F9450061
:10444000401C10B9002084F84500FFF753F803A979
:10445000684601F0B3FF40BB2046FFF759FFF0B1BB
:10446000206838B9FFF71FF8A06802F01AF806466E
:10447000FFF740F804F12400039901F0D8FD20462D
:10448000FFF797FD00F091FF002888D14FF0805092
:10449000C8490860BFF34F8FBFF36F8F7FE7204697
:1044A000FFF787FD00F081FF79E72046FFF781FDE8
:1044B00000F07BFF2046FFF72BFF0028EED05EB117
:1044C000FEF7F1FF2046FFF719FF07463946A068BF
:1044D00002F0C8F8FFF70EF8002081E72DE9F0415F
:1044E00006460F46344654B900BF502080F3118869
:1044F000BFF34F8FBFF36F8F00BF00BFFEE701F028
:10450000C1FFA168884204D1E068401CE060012539
:1045100008E039462046FFF708FF054615B1E06878
:10452000401CE0602846BDE8F08170B505460E46A7
:10453000002455B1AE4208D8022200212846FFF7D8
:1045400005FD04466CB1A6630BE054B900BF5020D2
:1045500080F31188BFF34F8FBFF36F8F00BF00BF91
:10456000FEE7204670BD2DE9F84F07468B46904682
:104570001E463C4654B900BF502080F31188BFF35B
:104580004F8FBFF36F8F00BF00BFFEE7BBF1000F7F
:1045900001D1206C08B9012000E0002050B900BF13
:1045A000502080F31188BFF34F8FBFF36F8F00BF90
:1045B00000BFFEE7022E02D1E06B012801D10120ED
:1045C00000E0002050B900BF502080F31188BFF3F5
:1045D0004F8FBFF36F8F00BF00BFFEE7FEF7BEFF38
:1045E00000BF5021EFF3118081F31188BFF34F8F8B
:1045F000BFF36F8F00BF0546A06BE16B884201D30C
:10460000022E37D194F945A0A06B0090324659464E
:104610002046FFF71CFD0AF1010088B9606A08B95D
:10462000012000E0002050B904F1240001F08BFDCE
:1046300028B1B8F1000F02D00120C8F8000016E040
:10464000BAF17F0F01D0012000E0002050B900BF77
:10465000502080F31188BFF34F8FBFF36F8F00BFDF
:1046600000BFFEE70AF1010040B284F845004FF0B8
:10467000010901E04FF0000900BF85F3118800BF78
:104680004846BDE8F88F2DE9F04706460F46344608
:1046900054B900BF502080F31188BFF34F8FBFF390
:1046A0006F8F00BF00BFFEE7206C08B9012000E05B
:1046B000002050B900BF502080F31188BFF34F8F06
:1046C000BFF36F8F00BF00BFFEE7206808B9A06886
:1046D00008B9012000E0002050B900BF502080F34D
:1046E0001188BFF34F8FBFF36F8F00BF00BFFEE78E
:1046F000FEF734FF00BF5021EFF3118081F31188E2
:10470000BFF34F8FBFF36F8F00BF0546D4F838A0BB
:10471000E06B504530D994F945900AF10100A0634F
:1047200009F1010070B9606A08B9012000E00020B9
:10473000F8B904F1240001F006FDD0B1CFB1012099
:10474000386016E0B9F17F0F01D0012000E00020B1
:1047500050B900BF502080F31188BFF34F8FBFF3D3
:104760006F8F00BF00BFFEE709F1010040B284F87F
:1047700045004FF0010801E04FF0000800BF85F34D
:10478000118800BF4046BDE8F08770B504460D466D
:10479000206C70B1216CE0680144E160D4E9021042
:1047A000884201D32168E1602846226CE1683CF030
:1047B0002EFF70BD04ED00E02DE9F74183B0054602
:1047C0000E464FF000082C4654B900BF502080F32D
:1047D0001188BFF34F8FBFF36F8F00BF00BFFEE79D
:1047E0000EB9206C08B9012000E0002050B900BFCC
:1047F000502080F31188BFF34F8FBFF36F8F00BF3E
:1048000000BFFEE701F041FE08B9059808B9012094
:1048100000E0002050B900BF502080F31188BFF3A2
:104820004F8FBFF36F8F00BF00BFFEE700BFFEF7E3
:104830003AFEA76BF7B131462046FFF7A6FF781E78
:10484000A063206908B9012000E0002060B904F1EC
:10485000100001F078FC38B14FF08050F849086042
:10486000BFF34F8FBFF36F8FFEF744FE012006B0FA
:10487000BDE8F081059818B9FEF73CFE0020F6E788
:10488000B8F1000F04D101A801F091FD4FF001082B
:10489000FEF730FE00F084FEFEF705FE94F94400BA
:1048A000401C10B9002084F8440094F94500401CD5
:1048B00010B9002084F84500FEF71CFE05A901A8E8
:1048C00001F07CFDF0B92046FFF722FDA0B104F114
:1048D0002400059901F0ABFB2046FFF76AFB00F0CE
:1048E00064FD0028A3D14FF08050D5490860BFF384
:1048F0004F8FBFF36F8F9AE72046FFF75AFB00F008
:1049000054FD94E72046FFF754FB00F04EFD20468F
:10491000FFF7FEFC00288AD00020A8E72DE9F74326
:1049200082B005460E464FF000082C4654B900BF31
:10493000502080F31188BFF34F8FBFF36F8F00BFFC
:1049400000BFFEE70EB9206C08B9012000E000208E
:1049500050B900BF502080F31188BFF34F8FBFF3D1
:104960006F8F00BF00BFFEE701F08FFD08B904980C
:1049700008B9012000E0002050B900BF502080F3AA
:104980001188BFF34F8FBFF36F8F00BF00BFFEE7EB
:1049900000BFFEF788FDD4F83890B9F1000F1ED0A3
:1049A000E76831462046FFF7F0FEE760606A08B925
:1049B000012000E0002060B904F1240001F0C3FBF5
:1049C00038B14FF080509E490860BFF34F8FBFF35E
:1049D0006F8FFEF78FFD012005B0BDE8F0830498CE
:1049E00018B9FEF787FD0020F6E7B8F1000F04D1F3
:1049F000684601F0DCFC4FF00108FEF77BFD00F09B
:104A0000CFFDFEF750FD94F94400401C10B9002082
:104A100084F8440094F94500401C10B9002084F843
:104A20004500FEF767FD04A9684601F0C7FCF0B930
:104A30002046FFF76DFCA0B104F12400049901F0B9
:104A4000F6FA2046FFF7B5FA00F0AFFC0028A0D137
:104A50004FF080507A490860BFF34F8FBFF36F8FDC
:104A600097E72046FFF7A5FA00F09FFC91E7204664
:104A7000FFF79FFA00F099FC2046FFF749FC002859
:104A800087D00020A8E72DE9F05F06468A46174642
:104A9000344654B900BF502080F31188BFF34F8FC4
:104AA000BFF36F8F00BF00BFFEE7BAF1000F01D167
:104AB000206C08B9012000E0002050B900BF502050
:104AC00080F31188BFF34F8FBFF36F8F00BF00BF1C
:104AD000FEE7FEF743FD00BF5021EFF3118081F3A5
:104AE0001188BFF34F8FBFF36F8F00BF0546D4F817
:104AF00038B0BBF1000F34D094F9449051462046B1
:104B0000FFF743FEABF10100A06309F1010070B9AA
:104B1000206908B9012000E00020F8B904F1100074
:104B200001F011FBD0B1CFB10120386016E0B9F12E
:104B30007F0F01D0012000E0002050B900BF5020BD
:104B400080F31188BFF34F8FBFF36F8F00BF00BF9B
:104B5000FEE709F1010040B284F844004FF001087B
:104B600001E04FF0000800BF85F3118800BF404608
:104B7000BDE8F09F2DE9F04706468846344654B913
:104B800000BF502080F31188BFF34F8FBFF36F8FAA
:104B900000BF00BFFEE7B8F1000F01D1206C08B9DB
:104BA000012000E0002050B900BF502080F31188A0
:104BB000BFF34F8FBFF36F8F00BF00BFFEE7206CC6
:104BC00008B1012000E0002050B900BF502080F360
:104BD0001188BFF34F8FBFF36F8F00BF00BFFEE799
:104BE000FEF7BCFC00BF5021EFF3118081F3118868
:104BF000BFF34F8FBFF36F8F00BF0546A06B48B167
:104C0000D4F80C9041462046FFF7BFFDC4F80C9045
:104C1000012700E0002700BF85F3118800BF384658
:104C2000BDE8F08770B5044664B900BF502080F33A
:104C30001188BFF34F8FBFF36F8F00BF00BFFEE738
:104C400004ED00E0FEF72FFCA56BFEF753FC2846B1
:104C500070BD70B50446254655B900BF502080F39D
:104C60001188BFF34F8FBFF36F8F00BF00BFFEE708
:104C7000FEF719FCD5E90E10461AFEF73BFC30464C
:104C800070BD10B501460A4652B900BF502383F3E8
:104C90001188BFF34F8FBFF36F8F00BF00BFFEE7D8
:104CA000906B10BD014651B900BF502282F31188AC
:104CB000BFF34F8FBFF36F8F00BF00BFFEE7002031
:104CC0000EE0684A02EBC00252688A4207D1002215
:104CD000644B43F8302003EBC0035A6002E0401CF1
:104CE0000828EED300BF704770B50446254655B975
:104CF00000BF502080F31188BFF34F8FBFF36F8F39
:104D000000BF00BFFEE72846FFF7CCFF2846FEF7AE
:104D100077FD70BD0146886C70478164704701461D
:104D200091F84C00704710B501460A4652B900BFD1
:104D3000502383F31188BFF34F8FBFF36F8F00BFF2
:104D400000BFFEE7936B0BB9012000E0002010BD0F
:104D500010B501460A4652B900BF502383F31188AB
:104D6000BFF34F8FBFF36F8F00BF00BFFEE7936BA2
:104D7000D46BA34201D1012000E0002010BD30B56A
:104D800002460B4652B900BF502484F31188BFF38A
:104D90004F8FBFF36F8F00BF00BFFEE70021BBB195
:104DA000002012E02F4C04EBC0046468944203D14D
:104DB0002C4C04EBC0010AE031B92A4C54F83040C5
:104DC00014B9284C04EBC001401C0828EAD300BFEA
:104DD00009B10B604A6030BD10B50246002052B9DF
:104DE00000BF502383F31188BFF34F8FBFF36F8F42
:104DF00000BF00BFFEE700210AE01A4B03EBC1032E
:104E00005B68934203D1174B53F8310002E0491C11
:104E10000829F2D300BF10BD2DE9F04105460E462A
:104E200017462C46FEF73FFB94F94400401C10B98E
:104E3000002084F8440094F94500401C10B900207B
:104E400084F84500FEF756FBA06B28B93A46314678
:104E500004F1240001F048F92046FFF7AAF8BDE864
:104E6000F08100007C90002010B5002407E004EBE6
:104E70008401F74A02EB8100FEF79EFF641C0A2CB6
:104E8000F5D3F448FEF798FFF348FEF795FFF34893
:104E9000FEF792FFF248FEF78FFFF248FEF78CFF15
:104EA000EC48F1490860EC48F049086010BD10B5C5
:104EB0000446FEF7F8FAEE480068401CEC4908602A
:104EC000EC48006840B9EB480460084600680128D7
:104ED0000DD1FFF7C9FF0AE0E748006838B9E54897
:104EE0000068C06AE16A884201D8E2480460E34889
:104EF0000068401CE149086008460068206494F896
:104F00002C1001208840DE4909680843DC4908600C
:104F1000E16A01EB8101CE4A02EB81014868A060A1
:104F20008268E260211D826851608160E16A01EB64
:104F30008101C74A02EB81026261E16A01EB8101F2
:104F4000C34A52F82110491CE26A02EB8202C04BAC
:104F500043F82210FEF7CEFAC748006868B1C5488A
:104F60000068C06AE16A884207D24FF08050C549A4
:104F70000860BFF34F8FBFF36F8F10BD2DE9F05F57
:104F800082460F4690469B460A9E0C9C4FEA88013B
:104F9000A522206B3CF05BFBA8F10100216B01EB2B
:104FA000800929F0070909F0070008B9012000E08D
:104FB000002050B900BF502080F31188BFF34F8FFD
:104FC000BFF36F8F00BF00BFFEE787B1002507E08A
:104FD000795D04F134004155785D00B902E06D1C43
:104FE0000A2DF5D300BF00213D20015502E000202D
:104FF00084F834000A2E01D2012000E0002050B9CC
:1050000000BF502080F31188BFF34F8FBFF36F8F25
:1050100000BF00BFFEE70A2E00D30926E662A664A1
:105020000020E064201DFEF7D4FE04F11800FEF716
:10503000D0FE2461C6F10A00A061646200202065F0
:10504000606584F858005A4651464846FEF74CF9C8
:1050500020600B9808B10B980460BDE8F09F2DE923
:10506000FF4F85B0804689461746DDE912ABB80090
:10507000FEF71DFB064656B15C20FEF718FB044602
:105080000CB1266304E03046FEF7BAFB00E00024D2
:105090007CB10020CDE900ABCDE902403A4649465B
:1050A0004046089BFFF76AFF2046FFF700FF0125F7
:1050B00001E04FF0FF35284609B0BDE8F08F10B58C
:1050C0000446206BFEF79CFB2046FEF799FB10BDC3
:1050D00065480068006808B9012000E0002020B1A0
:1050E0004FF0FF306849086005E05F480068C0681D
:1050F000006865490860704770B50546FEF7D3F94A
:1051000015B95C48006800E028460446201DFEF7FB
:1051100089FE78B9E06A00EB80004D4951F8200023
:1051200040B994F82C100120884055490968814302
:1051300053480160A06A18B104F11800FEF772FE2E
:105140004E480068401C4D4908604A480068844247
:1051500009D1211D4248FEF73FFE4C480068401C23
:105160004A49086006E042480068401E404908601D
:10517000FFF7AEFFFEF7BEF93E480068844202D05A
:105180002046FFF79CFF3C480068E8B139480068BA
:10519000844219D13E48006808B9012000E000208F
:1051A00050B900BF502080F31188BFF34F8FBFF379
:1051B0006F8F00BF00BFFEE74FF08050314908609D
:1051C000BFF34F8FBFF36F8F70BD2DE9F0414FF0EC
:1051D00000082F48006800287ED12E480068451C32
:1051E0002C48056015BB20480068006808B90120FC
:1051F00000E0002050B900BF502080F31188BFF3B9
:105200004F8FBFF36F8F00BF00BFFEE716480768E0
:105210001648006814490860144807601E48006872
:10522000401C1D490860FFF753FF00BF1648006887
:1052300085427DD300BF0C480068006808B9012092
:1052400000E0002050B34FF0FF300F49086091E0BC
:10525000BC9000208491002098910020AC91002007
:10526000C0910020D491002074010020780100201A
:1052700080010020700100208C0100209C01002092
:105280008801002004ED00E0A00100207C01002046
:10529000AC0100208401002098010020FFE7FA48BB
:1052A0000068C068C4686668B54202D2F748066004
:1052B00060E06069D4E902128A60D4E902214A60A0
:1052C000211D42688A4201D1E16841600022626189
:1052D0000168491E016000E05FE0A06A98B1A06A21
:1052E000D4E907128A60D4E907214A6004F1180161
:1052F00042688A4201D1216A41600022A2620168AB
:10530000491E016000BF94F82C1001208840E0493C
:1053100009680843DE490860E16A01EB8101DD4A62
:1053200002EB81014868A0608268E260211D00E014
:1053300021E0826851608160E16A01EB8101D54A18
:1053400002EB81026261E16A01EB8101D14A52F80C
:105350002110491CE26A02EB8202CE4B43F8221074
:10536000CD49E06A0968C96A8842FFF464AF4FF02A
:10537000010860E700BFC8480068C06A00EB800011
:10538000C44951F82000012801D94FF00108C34851
:10539000006808B14FF0010804E0C1480068401CF3
:1053A000BF4908604046BDE8F08170B50024002682
:1053B000BC48006850B900BF502080F31188BFF38B
:1053C0004F8FBFF36F8F00BF00BFFEE7FEF76BF894
:1053D000B4480068401EB3490860084600680028C9
:1053E0007ED1B148006800287AD05BE0AF48C06841
:1053F000C468A06AD4E907128A60D4E907214A6028
:1054000004F1180142688A4201D1216A41600022F8
:10541000A2620168491E01606069D4E902128A60D3
:10542000D4E902214A60211D42688A4201D1E16823
:105430004160002262610168491E016094F82C10ED
:105440000120884092490968084391490860E16A4F
:1054500001EB81018F4A02EB81014868A0608268FC
:10546000E260211D826851608160E16A01EB810187
:10547000884A02EB81026261E16A01EB8101854A9F
:1054800052F82110491CE26A02EB8202814B43F878
:1054900022108149E06A0968C96A884202D3012062
:1054A0007E4908608148006808B9012000E00020BA
:1054B00000289BD00CB1FFF70BFE7948056865B159
:1054C00000BFFFF782FE10B10120744908606D1E15
:1054D000002DF6D10020724908607048006800E095
:1054E00008E038B10126300771490860BFF34F8FDB
:1054F000BFF36F8FFDF7FEFF304670BD2DE9F04121
:1055000005460E466B48076863480068001DFEF7B5
:1055100089FC50B96048006890F82C100120884040
:105520005B49096881435A480160681CD8B9D6B103
:10553000614948685849096888605749826809681C
:10554000CA6055490968091D826851605249096855
:10555000091D8160584A504909684A611146096825
:10556000491C11601AE07C194B4800684460BC4239
:1055700007D249480168091D50480068FEF738FC09
:105580000CE045480168091D3F480068FEF730FC03
:105590003E480068844201D23C480460BDE8F08186
:1055A00040480068401C3F49086070472DE9F047BB
:1055B00004460F464FF0000954B900BF502080F355
:1055C0001188BFF34F8FBFF36F8F00BF00BFFEE79F
:1055D0000FB1012000E0002050B900BF502080F33F
:1055E0001188BFF34F8FBFF36F8F00BF00BFFEE77F
:1055F0002C48006808B9012000E0002050B900BF25
:10560000502080F31188BFF34F8FBFF36F8F00BF1F
:1056100000BFFEE7FFF7C4FF264806682068C519EB
:105620002068B04207D92068A8420BD9B54209D9F1
:105630004FF0010906E02068A84201D8B54201D91F
:105640004FF001092560B9F1000F03D0A81B00211C
:10565000FFF754FFFFF7A9FE8046B8F1000F07D10E
:105660004FF0805012490860BFF34F8FBFF36F8F28
:105670004846BDE8F08770B504460025B4B3094834
:105680000068E8B901201CE074010020A00100209E
:1056900088010020BC9000207001002094010020AF
:1056A00090010020AC01002080010020AC9100207E
:1056B00004ED00E084010020D49100207801002056
:1056C000002050B900BF502080F31188BFF34F8FE6
:1056D000BFF36F8F00BF00BFFEE7FFF761FF002140
:1056E0002046FFF70BFFFFF760FE05463DB94FF080
:1056F0008050F9490860BFF34F8FBFF36F8F70BDC3
:105700002DE9F04707463E4656B900BF502080F3CA
:105710001188BFF34F8FBFF36F8F00BF00BFFEE74D
:10572000EE480068864201D100242DE0FDF7BBFE63
:105730007569EB48D0F80080EA48D0F80090FDF792
:10574000D9FE454501D04D4501D102241CE0E64873
:10575000854212D1B06A70B90324002007E006F137
:105760005801095C012901D1022402E0401C0128F2
:10577000F5DB00BF08E0022406E0DC48854200D0EB
:105780000DB9042400E001242046BDE8F08770B57F
:105790000446FDF788FE14B9D048006800E02046B2
:1057A0000646F56AFDF7A6FE284670BD2DE9F041D4
:1057B0000546FDF7D3FE00BF5021EFF3118081F3C2
:1057C0001188BFF34F8FBFF36F8F00BF044615B929
:1057D000C248006800E028460746FE6A00BF84F31E
:1057E000118800BF3046BDE8F0812DE9F0478046C2
:1057F0000D464FF000090A2D01D2012000E00020E3
:1058000050B900BF502080F31188BFF34F8FBFF312
:105810006F8F00BF00BFFEE70A2D00D30925FDF7FB
:1058200042FEB8F1000F02D1AC48006800E04046EB
:105830000446A66CAE4270D0B5420BD9A7480068AA
:1058400084420DD0A5480068C06AA84208D84FF02D
:10585000010905E0A1480068844201D14FF0010927
:10586000E76AE16AA06C884200D1E562A564A0699C
:1058700000F0004010B9C5F10A00A06107EB8701F4
:105880009B4A02EB81016069884201D1012000E05E
:105890000020B0B3201DFEF7C5FA30B90120B84092
:1058A0009449096881439348016094F82C100120C1
:1058B00088409049096808438E490860E16A01EB15
:1058C00081018B4A02EB81014868A0608268E26036
:1058D000211D826851608160E16A01EB8101844A87
:1058E00002EB81026261E16A01EB8101804A52F8B8
:1058F0002110491CE26A02EB82027D4B43F8221020
:1059000000BFB9F1000F07D04FF080507249086016
:10591000BFF34F8FBFF36F8F00BFFDF7EBFDBDE807
:10592000F0877548006818B10120744908604CE0A0
:105930000020724908607248006872490860084691
:1059400000687149096888420BD96449096801F106
:105950005000096D6B4A12686B4B1B68D21A1144D8
:105960000160684800686849086062480068B0FAE9
:1059700080F0C0F11F0101EB81005D4A52F8200068
:1059800008B1012000E0002050B900BF502080F392
:105990001188BFF34F8FBFF36F8F00BF00BFFEE7CB
:1059A00001EB8102524B03EB820042685268426075
:1059B00000F108024368934202D142685268426093
:1059C0004268D268454B1A6000BF704770B5054603
:1059D000FDF769FD15B94148006800E02846044616
:1059E000201DFEF71FFA78B9E06A00EB80004049FD
:1059F00051F8200040B994F82C10012088403D490E
:105A0000096881433B480160A06A18B104F118009D
:105A1000FEF708FA211D3448FEF7DEF9002009E000
:105A200004F15801095C012903D1002204F1580155
:105A30000A54401C0128F3DBFDF75CFD3348006885
:105A400028B1FDF730FDFFF743FBFDF753FD234879
:105A50000068844229D12D480068D0B126480068EA
:105A600008B9012000E0002050B900BF502080F3A9
:105A70001188BFF34F8FBFF36F8F00BF00BFFEE7EA
:105A80004FF0805014490860BFF34F8FBFF36F8F02
:105A90000BE0154800681E490968884203D10020C0
:105AA0000E49086001E0FFF73CFF70BD10B50246EB
:105AB0000020114652B900BF502383F31188BFF371
:105AC0004F8FBFF36F8F00BF00BFFEE7064C4B69DF
:105AD000A3421FD101231EE004ED00E0700100206D
